:0400000085EF00F098
:1000080042004200420042004200420042004200D8
:1000180042004200420042004200420042004200C8
:1000280042004200420042004200420042004200B8
:100038004200420042004200420042004200A957EA
:100048004200420042004200420042004200420098
:100058004200420042004200420042004200420088
:100068004200420042004200420042004200420078
:100078004200420042004200420042004200420068
:10008800B055420042004200420042004200420095
:10009800C95542004200420042004200420042006C
:1000A8004200420042004200420042004200420038
:1000B8004200420042004200420042004200420028
:1000C8004200420042004200420042004200420018
:1000D8004200420042004200420042004200420008
:1000E80042004200420042004200420042004200F8
:1000F80042004200420042004200420042004200E8
:06010800FF001DEFA6F050
:10F988000000010000210011200401002130640062
:10F99800020021300100AC00912001BB0091200140
:10F9A800CA00912000C000912000C500912000B13C
:10F9B800009120005B544C4D5D2072696E67206495
:10F9C800657074683D25752F25752064726F707396
:10F9D8003D2575207C2073656E743D257520736503
:10F9E8006E646661696C3D257520746D6F3D257583
:10F9F800207C20716973656E64206D73206C61735F
:10FA0800743D2575206D696E3D2575206176673DCD
:10FA18002575206D61783D25750D0A000D0A5B4737
:10FA280050535D206865616C74683A2072783D2592
:10FA38006C752062797465732C2076616C69643DFD
:10FA4800256C752073656E74656E6365732C206311
:10FA580066675F61636B65643D25642C207532645D
:10FA6800726F703D25750D0A005B4750535D206C21
:10FA7800696E6B204033383430303B20636F6E66DC
:10FA880069677572696E6720666F72203130204829
:10FA98007A2028524D432B474741293B2061776103
:10FAA8006974696E672041434B0D0A000D0A5B4279
:10FAB8004739355D20257520636F6E7365637574EE
:10FAC8006976652073656E64206661696C75726518
:10FAD800733B2072656F70656E696E6720736F6324
:10FAE8006B65740D0A000D0A5B424739355D20735A
:10FAF80069676E616C20525353493D256420525307
:10FB080052503D25642053494E523D25642052539E
:10FB180052513D25642064426D0D0A000D0A46616C
:10FB2800727365657220626F6F743A204E454F2D6F
:10FB38004D394E202B204247393520554450202836
:10FB48006E6F6E2D626C6F636B696E67290D0A00AC
:10FB58000D0A5B424739355D206F7074696F6E61BD
:10FB68006C20636D64206E6F7420616363657074CC
:10FB780065642C20636F6E74696E75696E670D0A13
:10FB8800005B424739355D206272696E672D75707A
:10FB980020737461727465643B206C6F6F702069A8
:10FBA80073206E6F6E2D626C6F636B696E670D0AE2
:10FBB800000D0A5B424739355D205044502064658A
:10FBC8006163746976617465643B2072656163740E
:10FBD80069766174696E670D0A000D0A5B424739E0
:10FBE800355D2055445020736F636B6574206F70CA
:10FBF800656E3B206C696E6B2072656164790D0AD5
:10FC0800005B524D435D206E6F2076616C69642005
:10FC180066697820287374617475733D257329208B
:10FC280074696D653D000D0A5B424739355D206298
:10FC380061636B6F666620256C75206D7320746830
:10FC4800656E2072657472790D0A000D0A5B424771
:10FC580039355D20736F636B657420636C6F7365F2
:10FC6800643B2072656F70656E696E670D0A000DE2
:10FC78000A5B4750535D20554258204E414B3A206D
:10FC8800636F6E6669672072656A65637465640D83
:10FC98000A000D0A5B4750535D20554258204143E6
:10FCA8004B3A20636F6E66696720616363657074A1
:10FCB80065640D0A000D0A5B424739355D20646FA3
:10FCC800776E6C696E6B20256C6420627974652888
:10FCD80073290D0A0041542B51494F50454E3D316F
:10FCE8002C302C22554450222C222573222C257589
:10FCF8002C302C300041542B5149435347503D314F
:10FD08002C312C222573222C22222C22222C310049
:10FD18005B424739355D20646F776E6C696E6B2086
:10FD28007061796C6F61643A200041542B514346ED
:10FD3800473D226E777363616E6D6F6465222C3365
:10FD48002C31005B4750535D206E617620726174E0
:10FD5800653A20257520487A0D0A0041542B5143F5
:10FD680046473D22696F746F706D6F6465222C3051
:10FD78002C31000D0A5B424739355D20494D454914
:10FD880020257325730D0A002B51495552433A20FB
:10FD980022706470646561637422000D0A5B4247D7
:10FDA80039355D2053494D2025730D0A00256325FB
:10FDB800632F256325632F323025632563002B517C
:10FDC800495552433A2022636C6F736564220020C0
:10FDD8004669783D257320536174733D257300256A
:10FDE8006325633A256325633A2563256300204C20
:10FDF80061743D2573204C6E673D2573002B514976
:10FE08005552433A202272656376220041542B51A1
:10FE180053494D4445543D312C300041542B5149F0
:10FE280053454E443D302C25750041542B515349C0
:10FE38004D535441543D31002B51494F50454E3A92
:10FE480020302C300041542B5149434C4F53453DF1
:10FE580030002573256C752E2530376C75002028E9
:10FE68006E6F742072656164290041542B434544C8
:10FE78005258533D300075732E6C6F636C782E6941
:10FE88006F002D2D2F2D2D2F2D2D2D2D0041542B75
:10FE980051495344453D300041542B4350534D5331
:10FEA8003D300041542B51494143543D31002B51C1
:10FEB80053494D535441543A0052544B2066697883
:10FEC80065640052544B20666C6F617400256C7534
:10FED8002E2530326C750041542B514952443D3027
:10FEE800002B43474154543A20310041542B434698
:10FEF800554E3D310041542B43474154543F005324
:10FF0800454E44204641494C002D2D3A2D2D3A2D81
:10FF18002D0020436F757273653D00444750532090
:10FF28006669780041542B4350494E3F00696E730F
:10FF3800657274656400686F6C6F6772616D00202C
:10FF480053706565643D00756E6B6E6F776E002546
:10FF58006C752E256C750053454E44204F4B00415F
:10FF6800542B514353510072656D6F7665640028B8
:10FF78006E756C6C29005B4747415D20005B524DF4
:10FF8800435D20002048444F503D00204461746583
:10FF98003D006E6F20666978002B514952443A0043
:10FFA8002B514353513A0041542B47534E002530AF
:10FFB8003258200054696D653D0020416C743D0045
:10FFC8004552524F5200524541445900207C20224C
:10FFD80000206D0D0A00206465670041544530001B
:10FFE800220D0A0047474100524D4300206B6E0026
:08FFF8004154000D003E000021
:020000040001F9
:10000000EEEC93F0D3EF82F0E2ECADF006013A5162
:10001000055C0501896F06013B51065805018A6F91
:1000200006013C51075805018B6F06013D510858E8
:1000300005018C6F8C518B110BE1880E895D130EBD
:100040008A59D8A026EF80F028EF80F031EF83F0B6
:10005000C08EE2ECADF005C536F606C537F607C52D
:1000600038F608C539F6010E0501D26F31EF83F07D
:1000700006018051D8A43FEF80F041EF80F06BEF94
:1000800080F0E2ECADF006013651055C0501896FA8
:1000900006013751065805018A6F06013851075885
:1000A00005018B6F06013951085805018C6F8C5181
:1000B0008B118A1107E1640E895DD8B062EF80F080
:1000C00064EF80F066EF80F031EF83F083ECAFF007
:1000D000010E0601806F0501D151D8A472EF80F0A6
:1000E00074EF80F08FEF80F0F80E186EFF0E196E2F
:1000F000640E1A6EFF0E1B6E000E1C6E000E1D6E3F
:10010000E80E1E6E030E1F6E000E206E000E216E96
:10011000D3ECACF0010E0501D16F31EF83F01BEC95
:10012000AAF005018F6F8F05D8A499EF80F09BEF9F
:1001300080F0A0EF80F0D16B020ED26F31EF83F030
:100140008F51D8B4A6EF80F0A8EF80F031EF83F0A4
:10015000D16B31EF83F0E30E766FFF0E776F640E95
:10016000786FFF0E796FC80E7A6FFF0E7B6FD00E1F
:100170007C6F070E7D6F000E7E6F000E7F6F030E8B
:10018000806F020E816FFCECA7F031EF83F0D1514C
:10019000D8A4CDEF80F0CFEF80F0E7EF80F0AF0E86
:1001A000186EFF0E196E640E1A6EFF0E1B6EC80ECF
:1001B0001C6EFF0E1D6ED00E1E6E070E1F6E000E03
:1001C000206E000E216ED3ECACF08AEF80F01BECB9
:1001D000AAF00501906F9051D8A4F1EF80F0F3EFF1
:1001E00080F0F5EF80F031EF83F09005D8A4FBEFBD
:1001F00080F0FDEF80F003EF81F0000E106E090E2D
:10020000116E32ECA2F00501D16B06018351D8A426
:100210000CEF81F00EEF81F015EF81F0660E050115
:100220008D6FFE0E8E6F1AEF81F0EB0E05018D6F54
:10023000FF0E8E6F7B0E606FFD0E616FD40E626FCE
:10024000060E636F8DC564F58EC565F5E5ECAEF001
:10025000040E0501D26F31EF83F0140E4E6EFE0EC8
:100260004F6ED00E506E070E516E000E526E000E85
:10027000536E050E546ED5ECA8F031EF83F0320EBC
:100280004E6EFE0E4F6ED00E506E070E516E000E6B
:10029000526E000E536E060E546ED5ECA8F031EF80
:1002A00083F02C0E766FFF0E776FCE0E786FFF0EF9
:1002B000796FC80E7A6FFF0E7B6F880E7C6F130EFE
:1002C0007D6F000E7E6F000E7F6F070E806F060E33
:1002D000816FFCECA7F031EF83F0320E4E6EFD0E15
:1002E0004F6ED00E506E070E516E000E526E000E05
:1002F000536E080E546ED5ECA8F031EF83F0630E08
:100300004E6EFD0E4F6ED00E506E070E516E000EEB
:10031000526E000E536E090E546ED5ECA8F031EFFC
:1003200083F0A00E4E6EFE0E4F6ED00E506E070E76
:10033000516E000E526E000E536E0A0E546ED5ECC6
:10034000A8F031EF83F0720E4E6EFE0E4F6ED00E9F
:10035000506E070E516E000E526E000E536E0B0E55
:10036000546ED5ECA8F031EF83F0F30E766FFE0EED
:10037000776F640E786FFF0E796FC80E7A6FFF0E7D
:100380007B6F980E7C6F3A0E7D6F000E7E6F000EB5
:100390007F6F0C0E806F0B0E816FFCECA7F031EFBE
:1003A00083F0FD0E766FFE0E776FE90E786FFE0E0E
:1003B000796F000E7A6F000E7B6FD00E7C6F070E88
:1003C0007D6F000E7E6F000E7F6F0D0E806F0C0E26
:1003D000816FFCECA7F031EF83F0950E4E6EFE0EB0
:1003E0004F6ED00E506E070E516E000E526E000E04
:1003F000536E0E0E546ED5ECA8F031EF83F0D15150
:10040000D8A405EF82F007EF82F015EF82F0780EA6
:10041000606F070E616FFD0E626FFC0E636F3E0E24
:10042000646FFF0E656F61ECACF0780E0501766FBE
:10043000070E776F640E786FFF0E796FC80E7A6FB4
:10044000FF0E7B6F880E7C6F130E7D6F000E7E6F2C
:10045000000E7F6F0F0E806F0E0E816FFCECA7F009
:1004600031EF83F0AB0E766FFE0E776F640E786F10
:10047000FF0E796FC80E7A6FFF0E7B6FF00E7C6FE8
:10048000490E7D6F020E7E6F000E7F6F100E806F23
:100490000E0E816FFCECA7F031EF83F04D0E4E6E27
:1004A000FE0E4F6E100E506E270E516E000E526EE5
:1004B000000E536E110E546ED5ECA8F031EF83F0A0
:1004C000D151D8A466EF82F068EF82F07AEF82F023
:1004D000780E606F070E616FDD0E626FFC0E636F4A
:1004E0007E0E646FFE0E656FE60E676FF80E666F28
:1004F00061ECACF0780E0501766F070E776F400E59
:10050000786FFE0E796FC80E7A6FFF0E7B6FF00E5C
:100510007C6F490E7D6F020E7E6F000E7F6F120E94
:10052000806F0F0E816FFCECA7F0120E0501D2193F
:10053000D8A49DEF82F09FEF82F031EF83F00601A7
:10054000826B856B846BE20E0501606FFB0E616F41
:10055000E5ECAEF031EF83F0ADEC91F031EF83F0EC
:10056000E2ECADF006013E51055C0501896F060124
:100570003F51065805018A6F060140510758050191
:100580008B6F06014151085805018C6F800E8C5D00
:10059000D8B0CDEF82F0CFEF82F031EF83F081C69B
:1005A000D2F531EF83F00501D251896F8A6B8A5100
:1005B000000AD8B4DEEF82F031EF83F08951000AEF
:1005C000D8B404EF80F0010AD8B438EF80F0030A01
:1005D000D8B4ABEF80F0010AD8B4C7EF80F0070AB7
:1005E000D8B42DEF81F0010AD8B43FEF81F0030AAF
:1005F000D8B451EF81F0010AD8B46DEF81F00F0A41
:10060000D8B47FEF81F0010AD8B491EF81F0030AEA
:10061000D8B4A3EF81F0010AD8B4B5EF81F0070A8E
:10062000D8B4D1EF81F0010AD8B4EDEF81F0030A1C
:10063000D8B4FFEF81F0010AD8B432EF82F01F0A7C
:10064000D8B44EEF82F0010AD8B460EF82F0030A0A
:10065000D8B4ACEF82F0010AD8B4B0EF82F031EF39
:1006600083F0120034C5D9F435C5DAF4DEC4F6F4EB
:10067000DDC4F7F4000EF86E0800F550250AD8A482
:1006800044EF83F046EF83F0D0EF85F034C5D9F422
:1006900035C5DAF4DE2A000EDD220501CB6B000E33
:1006A000CA6FCAC558F506015D695E693C6A79EF93
:1006B00083F0588234C5D9F435C5DAF4DE2A000E49
:1006C000DD2279EF83F0010E3C6E79EF83F034C5C3
:1006D000D9F435C5DAF4DEC4F6F4DDC4F7F4000E5F
:1006E000F86E0800F550300AD8B459EF83F063EF84
:1006F00083F03C50D8B47FEF83F081EF83F067EF55
:1007000083F034C505F535C506F536C507F537C59B
:1007100008F504ECA3F005C5CAF506C5CBF505013F
:10072000CBBF97EF83F095EF83F09CEF83F0588079
:10073000CA6DCB1FD8B0CB2B34C5D9F435C5DAF48C
:10074000DEC4F6F4DDC4F7F4000EF86E0800F550D0
:10075000630AD8A4AEEF83F0B0EF83F0D3EF83F059
:1007600034C5D9F435C5DAF4DE2A000EDD2236C5EB
:10077000D9F437C5DAF4DFC438F5020EDE26DFC45B
:1007800039F5000EDD2238C5D9F439C5DAF4DF5069
:10079000416E32C510F533C511F541C512F5BBECFC
:1007A000A5F0E6EF85F034C5D9F435C5DAF4DEC43A
:1007B00042F5DDC443F542C5F6F443C5F7F4000E37
:1007C000F86E0800F5C441F5F1EF83F0424A432A80
:1007D00008EF84F0690E416E08EF84F0416A08EF7B
:1007E00084F04150580AD8B4EAEF83F03C0AD8B4F8
:1007F000EAEF83F00D0AD8B4EAEF83F0050AD8B423
:10080000E6EF83F0190AD8B4EAEF83F0EEEF83F055
:1008100042C5F6F443C5F7F4000EF86E0800F55033
:10082000640AD8B416EF84F018EF84F05FEF84F018
:1008300042C5F6F443C5F7F4000EF86E0800F55013
:10084000690AD8A426EF84F028EF84F088EF84F0BA
:100850005FEF84F036C5D9F437C5DAF4DFC438F574
:10086000020EDE26DFC439F5000EDD2238C5D9F4CC
:1008700039C5DAF4DEC43DF5DDC43EF5000E3EBEFA
:10088000FF0E3F6E406E6AEF84F036C5D9F437C56F
:10089000DAF4DFC438F5040EDE26DFC439F5000EC5
:1008A000DD2238C5D9F439C5DAF4DEC43DF5DEC43D
:1008B0003EF5DEC43FF5DEC440F56AEF84F04150FA
:1008C000690AD8B42AEF84F0050AD8B445EF84F059
:1008D0006AEF84F0010E4224386E000E4320396E18
:1008E00034C5D9F435C5DAF438C5DEF439C5DDF4DC
:1008F00032C520F533C521F53DC522F53EC523F5AA
:100900003FC524F540C525F5DCEC96F0E6EF85F013
:1009100042C5F6F443C5F7F4000EF86E0800F55032
:10092000580AD8B496EF84F098EF84F0E0EF84F0A2
:1009300042C5F6F443C5F7F4000EF86E0800F55012
:10094000750AD8A4A6EF84F0A8EF84F02DEF85F007
:10095000E0EF84F036C5D9F437C5DAF4DFC438F5F2
:10096000020EDE26DFC439F5000EDD2238C5D9F4CB
:1009700039C5DAF4DEC43AF5DDC43BF53AC53DF5D8
:100980003BC53EF53F6A406AEBEF84F036C5D9F4CB
:1009900037C5DAF4DFC438F5040EDE26DFC439F5D6
:1009A000000EDD2238C5D9F439C5DAF4DEC43DF5D0
:1009B000DEC43EF5DEC43FF5DEC440F5EBEF84F067
:1009C0004150690AD8B4AAEF84F0050AD8B4C6EF3A
:1009D00084F0EBEF84F0010E4224386E000E4320C9
:1009E000396E34C5D9F435C5DAF438C5DEF439C505
:1009F000DDF41BEF85F032C527F533C528F53DC57D
:100A000029F53EC52AF53FC52BF540C52CF5DDEC93
:100A10009DF0E6EF85F032C520F533C521F53DC5E3
:100A200022F53EC523F53FC524F540C525F538EC34
:100A30009CF0E6EF85F042C5F6F443C5F7F4000EEE
:100A4000F86E0800F550580AD8B40BEF85F02D0A5F
:100A5000D8B4FBEF84F02DEF85F03C6A34C5D9F4AF
:100A600035C5DAF4DEC4F6F4DDC4F7F4000EF86E32
:100A70000800F550730AD8A440EF85F042EF85F0E6
:100A80004DEF85F034C5D9F435C5DAF4DE2A000E11
:100A9000DD22010E3C6EA3EF85F034C5D9F435C5D7
:100AA000DAF4DEC4F6F4DDC4F7F4000EF86E0800E4
:100AB000F5506C0AD8A45FEF85F061EF85F0A3EFE5
:100AC00085F034C5D9F435C5DAF4DEC438F5DDC4B3
:100AD00039F5010E3826000E392238C5F6F439C52D
:100AE000F7F4000EF86E0800F5506C0AD8A47BEFFE
:100AF00085F07DEF85F0A3EF85F034C5D9F435C5D9
:100B0000DAF4DEC438F5DDC439F5020E3826000EFD
:100B1000392238C5F6F439C5F7F4000EF86E08002E
:100B2000F550730AD8A497EF85F099EF85F0A3EFFD
:100B300085F0030E34C5D9F435C5DAF4DE26000E8F
:100B4000DD2249EF85F03C50D8B4A9EF85F0ABEF3A
:100B500085F0C7EF85F032C510F533C511F536C500
:100B6000D9F437C5DAF4DFC438F5020EDE26DFC467
:100B700039F5000EDD2238C5D9F439C5DAF4DEC402
:100B800012F5DDC413F51EEC99F0E6EF85F034C5DF
:100B9000D9F435C5DAF4DE2A000EDD22E6EF85F061
:100BA00034C5D9F435C5DAF4DEC4F6F4DDC4F7F49F
:100BB000000EF86E0800F550076E086A32C509F598
:100BC00033C50AF569ECA3F0C7EF85F01200306A6F
:100BD000000E316E000E326E000E336E000E346E5B
:100BE0001AC535F51BC536F51FBE02EF86F01F503E
:100BF00007E1250E1E5CD8B000EF86F002EF86F00C
:100C00000BEF86F01E041F10D8A409EF86F00BEF3F
:100C100086F011EF86F00601606B160E5F6F0BEF2A
:100C200088F035503610D8B418EF86F01AEF86F0F9
:100C30000BEF88F035C5D9F436C5DAF4DF50D8A407
:100C400024EF86F026EF86F028EF86F00BEF88F091
:100C500035C5D9F436C5DAF4DF50376E38EF86F093
:100C6000354A362A35C5D9F436C5DAF4DF50376E41
:100C7000200E3718D8B43FEF86F041EF86F030EF02
:100C800086F037C521F5F70E2126040E21644BEFBF
:100C900086F04DEF86F030EF86F02D0E3718D8A491
:100CA00054EF86F056EF86F062EF86F0010E306E5C
:100CB000354A362A35C5D9F436C5DAF4DF50376EF1
:100CC0006DEF86F02B0E3718D8A469EF86F06BEF26
:100CD00086F06DEF86F058EF86F0300E3718D8A406
:100CE00074EF86F076EF86F00DEF87F0354A362AFE
:100CF00035C5D9F436C5DAF4DF50376E1E501F10F3
:100D0000D8B485EF86F087EF86F091EF86F0100E6D
:100D10001E181F10D8A48FEF86F091EF86F000EF19
:100D200087F0780E3718D8B498EF86F09AEF86F0EF
:100D3000A3EF86F0580E3718D8A4A1EF86F0A3EFE2
:100D400086F000EF87F01F6A100E1E6E354A362AB5
:100D500035C5D9F436C5DAF4DF50376E37C521F51D
:100D6000200E21129F0E21261A0E2160BAEF86F066
:100D7000BCEF86F0E0EF86F037C521F59F0E212607
:100D8000190E2164C6EF86F0C8EF86F0CDEF86F02D
:100D900037C528F5296AD4EF86F037C521F55F0EEF
:100DA00021162150286E296A28C521F5C90E212651
:100DB000100E2160DEEF86F0E0EF86F0FAEF86F0AD
:100DC00037C521F5200E21129F0E2126190E216410
:100DD000ECEF86F0EEEF86F00DEF87F037C521F5EA
:100DE000D00E2126090E2164F8EF86F0FAEF86F086
:100DF0000DEF87F030843506D8A036060BEF88F06B
:100E000030841E501F10D8A408EF87F00AEF87F037
:100E10000DEF87F01F6A080E1E6E1E501F10D8A41B
:100E200014EF87F016EF87F019EF87F01F6A0A0EAC
:100E30001E6E2050D8B41FEF87F021EF87F03CEFF3
:100E400087F030B026EF87F028EF87F032EF87F099
:100E5000FF0E2C6EFF0E2D6EFF0E2E6E7F0E2F6E70
:100E600040EF87F0000E2C6E000E2D6E000E2E6EE1
:100E7000800E2F6E40EF87F02C682D682E682F684B
:100E800031C524F532C525F533C526F534C527F51A
:100E900037C521F5200E21129F0E21261A0E216042
:100EA00054EF87F056EF87F073EF87F037C521F5E1
:100EB0009F0E2126190E216460EF87F062EF87F004
:100EC00067EF87F037C52AF52B6A6EEF87F037C5D5
:100ED00021F55F0E211621502A6E2B6A2A50C90F68
:100EE000376E81EF87F037C521F5D00E21260A0E27
:100EF00021607DEF87F07FEF87F0F9EF87F0300E0C
:100F0000375E3750216E226A1E50215C2250800AC3
:100F1000236E1F50800A2358D8A091EF87F093EFDB
:100F200087F095EF87F0F9EF87F030B29AEF87F00E
:100F30009CEF87F0EEEF87F01EC50EF51FC50FF58D
:100F4000000E0FBEFF0E106E116E31C512F532C5C8
:100F500013F533C514F534C515F5C7ECAAF03750B1
:100F60000E24316E000E0F20326E000E1020336EF4
:100F7000000E1120346E2450315C2550325826501A
:100F8000335827503458D8A0C8EF87F0CAEF87F0FD
:100F9000E1EF87F02050D8B4D0EF87F0D2EF87F0A0
:100FA000EEEF87F031502C5C32502D5833502E58D4
:100FB00034502F58D8B0DFEF87F0E1EF87F0EEEF35
:100FC00087F02CC531F52DC532F52EC533F52FC56B
:100FD00034F50601606B220E5F6F3082354A362A87
:100FE00035C5D9F436C5DAF4DF50376E308440EFBA
:100FF00087F03050030BE806D8A401EF88F003EF28
:1010000088F00BEF88F0341E331E321E316C000E58
:101010003222332234221C501D10D8B412EF88F033
:1010200014EF88F027EF88F030B419EF88F01BEF49
:1010300088F01FEF88F01AC535F51BC536F51CC5BD
:10104000D9F41DC5DAF435C5DEF436C5DDF431C595
:101050001AF532C51BF533C51CF534C51DF5120054
:10106000FDECADF091ECAEF036ECADF031ECAEF065
:10107000A6ECAEF0D68E240E0501606FFB0E616FFC
:10108000E5ECAEF0F8ECAEF0E2ECADF005C560F8E2
:1010900006C561F807C562F808C563F8710E050159
:1010A000606FFA0E616FE5ECAEF0DA0E0E6E400E78
:1010B0000F6E010E106EC9ECA6F0890E0501606F6F
:1010C000FB0E616FE5ECAEF063ECAEF0E2ECADF080
:1010D00005C564F806C565F807C566F808C567F86C
:1010E000E2ECADF005C568F806C569F807C56AF811
:1010F00008C56BF808016D6B000E6C6F7C6B85EF9B
:1011000088F008017D518FECA8F07D0E056E080E69
:10111000066E54ECADF00009D8A491EF88F093EF7F
:1011200088F081EF88F07BECAFF00009D8A49BEF4A
:1011300088F09DEF88F0CDEF88F0E2ECADF008018B
:101140006051055C0501C66F080161510658050133
:10115000C76F0801625107580501C86F0801635144
:1011600008580501C96FC951C8110BE1E80EC65DE9
:10117000030EC759D8A0BFEF88F0C1EF88F0CDEFBC
:1011800088F0E2ECADF005C560F806C561F807C56A
:1011900062F808C563F8F8ECAEF000EC80F07E0E63
:1011A000056E080E066EBBECAEF008017E51D8B499
:1011B000DCEF88F0DEEF88F0F4EF88F06C517F19F7
:1011C00009E16D518019D8B4E8EF88F0EAEF88F0B2
:1011D000F4EF88F07FC86CF880C86DF87E0E0B6E57
:1011E000080E0C6E6AEC98F017ECAFF008017C1951
:1011F000D8B4FDEF88F0FFEF88F00DEF89F017EC21
:10120000AFF008017C6F7C51D8B409EF89F00BEF87
:1012100089F00DEF89F063ECAFF0E2ECADF008017E
:101220006451055C0501C66F08016551065805014A
:10123000C76F0801665107580501C86F080167515B
:1012400008580501C96FC951C811C71109E1C80E75
:10125000C65DD8A02EEF89F030EF89F06CEF89F0F1
:101260007A0E056E080E066E90ECAAF005C56EF8B3
:1012700006C56FF808016E516F11D8B442EF89F0BE
:1012800044EF89F06CEF89F0E2ECADF005C564F84D
:1012900006C565F807C566F808C567F86EC81FF586
:1012A0006FC820F57AC821F57BC822F565EC90F06F
:1012B0001FC570F820C571F8080170517111D8B4BC
:1012C00064EF89F066EF89F06CEF89F070C805F57E
:1012D00071C806F58EECADF0E2ECADF00801685196
:1012E000055C0501C66F0801695106580501C76F05
:1012F00008016A5107580501C86F08016B51085869
:101300000501C96FC951C8110BE1880EC65D130EE6
:10131000C759D8A08EEF89F090EF89F085EF88F05B
:10132000E2ECADF005C568F806C569F807C56AF8CE
:1013300008C56BF8720E056E080E066E760E076E07
:10134000080E086EBEECABF0240E0501606FFA0EBD
:10135000616F72C862F573C863F574C864F575C8C7
:1013600065F576C866F577C867F578C868F579C811
:1013700069F57BECAFF00501C66FC6516A6F6B6B08
:101380004AECAEF005C56CF506C56DF5E5ECAEF0C2
:10139000910E056E080E066ED0ECAEF0BC0E050187
:1013A000606FF90E616F81ECAFF00501C66FC65139
:1013B000626F636B656B200E646F68ECAFF005C500
:1013C00066F506C567F591C868F592C869F593C8D2
:1013D0006AF594C86BF595C86CF596C86DF597C815
:1013E0006EF598C86FF599C870F59AC871F59DC8E3
:1013F00072F59EC873F59BC874F59CC875F5E5EC4D
:10140000AEF085EF88F085EF00F03A6A3A501A2482
:10141000D96E000E1B20DA6E2F0EDF6412EF8AF0F9
:1014200014EF8AF022EF8AF03A501A24D96E000E97
:101430001B20DA6E390EDF6420EF8AF022EF8AF08B
:101440002CEF8AF0000E1A6E000E1B6E000E1C6E42
:10145000000E1D6EC8EF8BF03A2A050E3A6433EF8A
:101460008AF035EF8AF006EF8AF020EE01F01A508C
:10147000D9261B50DA22DF501E6ED00E1E241F6E9E
:10148000206AFF0E20221AC5D9F41BC5DAF4DF50FA
:10149000216ED00E2124226E236AFF0E232222C544
:1014A0000EF523C50FF5106A116A0A0E126E000EB2
:1014B000136E000E146E000E156EC7ECAAF01F50CE
:1014C0000E242A6E20500F202B6E000E10202C6E42
:1014D000000E11202D6E20EE03F01A50D9261B505D
:1014E000DA22DF501E6ED00E1E241F6E206AFF0E01
:1014F000202220EE02F01A50D9261B50DA22DF50AB
:10150000216ED00E2124226E236AFF0E232222C5D3
:101510000EF523C50FF5106A116A0A0E126E000E41
:10152000136E000E146E000E156EC7ECAAF01F505D
:101530000E242E6E20500F202F6E000E1020306EC5
:10154000000E1120316E20EE05F01A50D9261B50E6
:10155000DA22DF501E6ED00E1E241F6E206AFF0E90
:10156000202220EE04F01A50D9261B50DA22DF5038
:10157000216ED00E2124226E236AFF0E232222C563
:101580000EF523C50FF5106A116A0A0E126E000ED1
:10159000136E000E146E000E156EC7ECAAF01F50ED
:1015A0000E24326E20500F20336E000E1020346E49
:1015B000000E1120356E000E366E000E376E000ED6
:1015C000386E000E396E20EE06F01A50D9261B50E8
:1015D000DA222E0EDE18D8A4F0EF8AF0F2EF8AF0AD
:1015E00066EF8BF020EE07F01A50D9261B50DA2256
:1015F0002F0EDF64FEEF8AF000EF8BF066EF8BF0CA
:1016000020EE07F01A50D9261B50DA223A0EDF607E
:101610000CEF8BF00EEF8BF066EF8BF020EE07F007
:101620001A50D9261B50DA22DF501E6ED00E1E240F
:101630001F6E206AFF0E20221FC50EF520C50FF574
:10164000106A116A0A0E126E000E136E000E146EEE
:10165000000E156EC7ECAAF00EC536F50FC537F5AE
:1016600010C538F511C539F520EE08F01A50D92605
:101670001B50DA222F0EDF6440EF8BF042EF8BF02D
:1016800066EF8BF020EE08F01A50D9261B50DA22B4
:101690003A0EDF604EEF8BF050EF8BF066EF8BF081
:1016A00020EE08F01A50D9261B50DA22DF501E6EA9
:1016B000D00E1E241F6E206AFF0E20221F503626D9
:1016C00020503722000E3822000E39222AC50EF58E
:1016D0002BC50FF52CC510F52DC511F5400E126E5A
:1016E0007E0E136E050E146E000E156EC7ECAAF07A
:1016F0000EC51EF50FC51FF510C520F511C521F546
:101700002EC50EF52FC50FF530C510F531C511F5F5
:10171000700E126E170E136E000E146E000E156E04
:10172000C7ECAAF00E501E24226E0F501F20236E0D
:1017300010502020246E11502120256E32C50EF548
:1017400033C50FF534C510F535C511F5640E126EAD
:10175000000E136E000E146E000E156EC7ECAAF08C
:101760000E502224266E0F502320276E1050242066
:10177000286E11502520296E365026241A6E3750B7
:1017800027201B6E385028201C6E395029201D6ED2
:101790001200000E3C6E000E3D6E000E3E6E000EFE
:1017A0003F6E446A01EF8CF044502724D96E000E3E
:1017B0002820DA6EDF502B6ED00E2B242C6E2D6A73
:1017C000FF0E2D223CC50EF53DC50FF53EC510F5AB
:1017D0003FC511F50A0E126E000E136E000E146E48
:1017E000000E156EC7ECAAF02C500E243C6E2D5046
:1017F0000F203D6E000E10203E6E000E11203F6E39
:10180000442A44502724D96E000E2820DA6E2F0E69
:10181000DF640DEF8CF00FEF8CF01DEF8CF0445077
:101820002724D96E000E2820DA6E390EDF641BEFF4
:101830008CF01DEF8CF0D4EF8BF0030E446023EF9F
:101840008CF025EF8CF02FEF8CF0000E276E000E41
:10185000286E000E296E000E2A6E7FEF8DF0000EAE
:10186000406E000E416E000E426E000E436E3B6AEB
:1018700044502724D96E000E2820DA6E2E0EDE1872
:10188000D8A445EF8CF047EF8CF0B9EF8CF0442AE8
:1018900078EF8CF044502724D96E000E2820DA6EA1
:1018A000DF502B6ED00E2B242C6E2D6AFF0E2D22B6
:1018B00040C50EF541C50FF542C510F543C511F5FC
:1018C0000A0E126E000E136E000E146E000E156ED0
:1018D000C7ECAAF02C500E24406E2D500F20416E04
:1018E000000E1020426E000E1120436E442A3B2A47
:1018F000050E3B607EEF8CF080EF8CF0B9EF8CF042
:1019000044502724D96E000E2820DA6E2F0EDF6493
:101910008CEF8CF08EEF8CF0B9EF8CF044502724D4
:10192000D96E000E2820DA6E390EDF649AEF8CF043
:101930009CEF8CF04AEF8CF0B9EF8CF040C50EF5BF
:1019400041C50FF542C510F543C511F50A0E126EDB
:10195000000E136E000E146E000E156EC7ECAAF08A
:101960000EC540F50FC541F510C542F511C543F54B
:101970003B2A040E3B64BFEF8CF0C1EF8CF09EEF6E
:101980008CF03CC51AF53DC51BF53EC51CF53FC5A1
:101990001DF5640E1E6E000E1F6E000E206E000EF2
:1019A000216E77ECA6F01AC52FF51BC530F51CC5C6
:1019B00031F51DC532F5640E096E000E0A6E000E7B
:1019C0000B6E000E0C6E3CC505F53DC506F53EC51B
:1019D00007F53FC508F51AECA9F005C50EF506C5D3
:1019E0000FF507C510F508C511F5A00E126E860E8D
:1019F000136E010E146E000E156EC7ECAAF0405067
:101A00000E24336E41500F20346E42501020356E3C
:101A100043501120366E2FC50EF530C50FF531C578
:101A200010F532C511F5800E126E960E136E980EDB
:101A3000146E000E156EC7ECAAF00EC52BF50FC57F
:101A40002CF510C52DF511C52EF533C50EF534C591
:101A50000FF535C510F536C511F5050E126E000EE1
:101A6000136E000E146E000E156EC7ECAAF00EC5B4
:101A70001AF50FC51BF510C51CF511C51DF5030E94
:101A80001E6E000E1F6E000E206E000E216E77EC93
:101A9000A6F01A502B24376E1B502C20386E1C5089
:101AA0002D20396E1D502E203A6E29C5D9F42AC535
:101AB000DAF4530EDE18D8B460EF8DF062EF8DF0DB
:101AC0006FEF8DF029C5D9F42AC5DAF4570EDE1868
:101AD000D8A46DEF8DF06FEF8DF077EF8DF03A1E9B
:101AE000391E381E376C000E382239223A2237C58B
:101AF00027F538C528F539C529F53AC52AF5120064
:101B00000A0E0501916187EF8DF089EF8DF08BEF63
:101B10008DF015EF8FF0CEECA3F0050120EE02F072
:101B20008F51D9269051DA22DEC4BEF5DDC4BFF54F
:101B300020EE04F08F51D9269051DA22DEC4C0F590
:101B4000DDC4C1F520EE06F08F51D9269051DA227E
:101B5000DEC4AEF5DDC4AFF520EE08F08F51D92616
:101B60009051DA22DEC4B0F5DDC4B1F520EE0AF002
:101B70008F51D9269051DA22DEC4B2F5DDC4B3F517
:101B800020EE0CF08F51D9269051DA22DEC4B4F544
:101B9000DDC4B5F520EE0EF08F51D9269051DA2232
:101BA000DEC4B6F5DDC4B7F520EE10F08F51D926AE
:101BB0009051DA22DEC4B8F5DDC4B9F520EE12F09A
:101BC0008F51D9269051DA22DEC4BAF5DDC4BBF5B7
:101BD000C0C5D9F4C1C5DAF4410EDE18D8B4F3EFAC
:101BE0008DF0F5EF8DF034EF8EF09B0E0E6E060E3D
:101BF0000F6E59ECA1F00009D8B401EF8EF003EF9D
:101C00008EF015EF8FF0C0C5D9F4C1C5DAF4DF50FE
:101C1000D8A40DEF8EF00FEF8EF016EF8EF0330E8E
:101C20000501BC6FFF0EBD6F1AEF8EF0C0C5BCF58D
:101C3000C1C5BDF5090E0501606FFC0E616FBCC525
:101C400062F5BDC563F5E5ECAEF0BEC54EF5BFC5AA
:101C50004FF5F7ECA4F0E90E0501606FFF0E616F20
:101C6000E5ECAEF015EF8FF00601014B022BBEC57F
:101C70001AF5BFC51BF505EC8AF01AC503F61BC59E
:101C800004F61CC505F61DC506F6AEC527F5AFC59D
:101C900028F5B0C529F5B1C52AF5C9EC8BF027C5E3
:101CA00007F628C508F629C509F62AC50AF6B2C5F9
:101CB00027F5B3C528F5B4C529F5B5C52AF5C9EC8E
:101CC0008BF027C50BF628C50CF629C50DF62AC5DD
:101CD0000EF6B6C51AF5B7C51BF5020E1C6EF6EC6E
:101CE00095F01AC50FF61BC510F6B8C51AF5B9C59B
:101CF0001BF5010E1C6EF6EC95F01AC511F61BC50E
:101D000012F6010E0601006F9B0E0E6E060E0F6E90
:101D100059ECA1F00009D8A490EF8EF092EF8EF06C
:101D200094EF8EF015EF8FF0920E05017B6F050E8C
:101D30007C6F07C67DF508C67EF509C67FF50AC625
:101D400080F567EC9EF0A00E05017B6F050E7C6FA1
:101D50000BC67DF50CC67EF50DC67FF50EC680F56B
:101D600067EC9EF0850E0501606FFF0E616FE5EC7C
:101D7000AEF0BC0E0501606FFF0E616FE5ECAEF0DA
:101D8000BEC54EF5BFC54FF5F7ECA4F0930E0501A7
:101D9000606FFF0E616FE5ECAEF0BAC54EF5BBC5E6
:101DA0004FF595ECA4F0F60E0501606FFD0E616F26
:101DB000920E626F050E636FA00E646F050E656F65
:101DC000E5ECAEF0470E0501606FFF0E616FE5ECCC
:101DD000AEF00FC64EF510C64FF5506A516A18ECBA
:101DE000A7F0F40E0501606FFF0E616FE5ECAEF039
:101DF0001A0E0501606FFF0E616FE5ECAEF011C6C3
:101E00004EF512C64FF5506A516A64ECA7F0DE0E2B
:101E10000501606FFF0E616FE5ECAEF0E90E0501A4
:101E2000606FFF0E616FE5ECAEF012000A0E050167
:101E300091611DEF8FF01FEF8FF021EF8FF064EFB6
:101E400090F020EE02F08F51D9269051DA22DEC4B4
:101E5000AEF5DDC4AFF520EE04F08F51D9269051D8
:101E6000DA22DEC4B0F5DDC4B1F520EE06F08F5104
:101E7000D9269051DA22DEC4B2F5DDC4B3F520EEE6
:101E800008F08F51D9269051DA22DEC4B4F5DDC4B2
:101E9000B5F520EE0AF08F51D9269051DA22DEC432
:101EA000B6F5DDC4B7F520EE0CF08F51D926905170
:101EB000DA22DEC4B8F5DDC4B9F520EE0EF08F519C
:101EC000D9269051DA22DEC4C0F5DDC4C1F520EE7A
:101ED00010F08F51D9269051DA22DEC4BAF5DDC454
:101EE000BBF520EE12F08F51D9269051DA22DEC4D4
:101EF000BCF5DDC4BDF5970E0E6E060E0F6E59ECE7
:101F0000A1F00009D8A487EF8FF089EF8FF08BEF55
:101F10008FF064EF90F0920E05017B6F050E7C6FE1
:101F2000B0C527F5B1C528F5B2C529F5B3C52AF561
:101F3000C9EC8BF027C57DF528C57EF529C57FF551
:101F40002AC580F567EC9EF0A00E05017B6F050E9B
:101F50007C6FB4C527F5B5C528F5B6C529F5B7C555
:101F60002AF5C9EC8BF027C57DF528C57EF529C576
:101F70007FF52AC580F567EC9EF0BCC526F5BDC58A
:101F800027F5010E286E32ECA4F026C5C2F527C550
:101F9000C3F528C5C4F529C5C5F57E0E0501606FDA
:101FA000FF0E616FE5ECAEF0BC0E0501606FFF0E39
:101FB000616FE5ECAEF0AEC54EF5AFC54FF5F7EC91
:101FC000A4F0C0C5D9F4C1C5DAF4DF50D8A4EBEF52
:101FD0008FF0EDEF8FF0F4EF8FF04B0E0501BE6F39
:101FE000FE0EBF6FF8EF8FF0C0C5BEF5C1C5BFF5DF
:101FF000D70E0501606FFD0E616FB8C505F5B9C557
:1020000006F55EECA9F005C562F506C563F5BEC52B
:1020100064F5BFC565F5E5ECAEF08C0E0501606FAB
:10202000FF0E616FE5ECAEF0BAC51AF5BBC51BF546
:10203000010E1C6EF6EC95F01AC54EF51BC54FF55A
:102040001CC550F51DC551F564ECA7F0F60E050151
:10205000606FFD0E616F920E626F050E636FA00ED2
:10206000646F050E656FE5ECAEF0C20E0501606FA2
:10207000FF0E616FE5ECAEF00501C5BF44EF90F0D7
:1020800042EF90F053EF90F0930E606FFE0E616F91
:10209000E5ECAEF00501C51FC41FC31FC26D000EE5
:1020A000C323C423C523C2C54EF5C3C54FF5C4C55C
:1020B00050F5C5C551F564ECA7F0D90E0501606F68
:1020C000FF0E616FE5ECAEF012001F502010D8B487
:1020D0006CEF90F06EEF90F079EF90F0225007E106
:1020E000170E215CD8B077EF90F079EF90F07EEF8B
:1020F00090F0206A000E1F6EACEF91F00601635164
:10210000675D306E64516859316E5A50236E246A8F
:102110003050235C31502458D8A091EF90F093EFC9
:1021200090F098EF90F030C52AF52B6A9BEF90F075
:102130005AC52AF52B6A2AC529F52950D8A4A3EF38
:1021400090F0A5EF90F0DBEF90F0E2ECADF006013F
:102150002651055C236E27510658246E28510758D6
:10216000256E29510858266E2650251009E1880E43
:10217000235C130E2458D8B0C0EF90F0C2EF90F05B
:10218000C4EF90F079EF90F0E2ECADF005C526F6E3
:1021900006C527F607C528F608C529F61FC510F598
:1021A00020C511F5000E126E73EC9FF0206A170E19
:1021B0001F6EACEF91F05A50675D236E000E6859A8
:1021C000246E010E2324326E000E2420336EFB0E8B
:1021D0006325276EFF0E6421286E3250275C376E10
:1021E00033502858386E5A50236E246A2350375C77
:1021F00024503858D8A0FFEF90F001EF91F004EF91
:1022000091F0386A000E376E37505A5C396E38508C
:10221000D8A038283A6A3A5E3A5009E1190E395C7A
:10222000D8A015EF91F017EF91F01AEF91F03A6AFC
:10223000180E396EE90E2124056EFF0E2220066E5F
:10224000086A120E076E57ECAAF005C534F506C5EC
:1022500035F53950345C3A503558D8B032EF91F0FA
:1022600034EF91F038EF91F034C539F535C53AF5D2
:1022700039503A10D8A43FEF91F041EF91F043EF7D
:1022800091F079EF90F01FC510F520C511F539C513
:1022900012F573EC9FF05A5006017A5D3724200F37
:1022A0001F0B366E170E1F242C6E000E20202D6E75
:1022B0002F6A000E2E6E77EF91F02CC505F52DC517
:1022C00006F53650120D000EF324076E0C0EF420A6
:1022D000086E0A6A120E096EE9ECABF0120E2C269B
:1022E000000E2D2236281F0B366E2E4A2F2A39500B
:1022F0002E5C3A502F58D8A080EF91F082EF91F0E9
:102300005DEF91F037503224236E38503320246E25
:10231000395023263A502422FF0E23240601636FEE
:10232000FF0E2420646FE2ECADF005C526F606C56D
:1023300027F607C528F608C529F6120E3902F3C498
:1023400023F5F4C424F53A02F3502426170E23246F
:102350001F6E000E2420206E120006018605D8A4F0
:10236000B4EF91F0B6EF91F0C5EF91F0866B826B10
:102370000501D16B530E606FFC0E616FE5ECAEF0A2
:10238000110E87ECACF0D9EF92F0020E8619D8A4AA
:10239000CCEF91F0CEEF91F0B8EF92F0866B826BBC
:1023A0000501D16BB90E606FFB0E616FE5ECAEF00D
:1023B0000F0E87ECACF0D9EF92F0D0EC99F0D9EF9A
:1023C00092F00501886B000E876FF3EF91F0400EDD
:1023D0008725D96E0E0E8821DA6EDF5030ECAFF013
:1023E0000501874B882B06016F510501875D0601AA
:1023F000705105018859D8A000EF92F002EF92F0D9
:10240000E7EF91F05F0E0E6EFF0E0F6EC80E106EAE
:10241000FF0E116E070E126EFF0E136EE80E146E95
:10242000030E156E000E166E000E176E47ECA8F028
:10243000020E0601826FD9EF92F07BECAEF006013E
:102440008D4B8E2BC7ECADF0D9EF92F01BECAAF0C0
:10245000556E566A5650000AD8B431EF92F0D9EF53
:1024600092F05550010AD8B4E1EF91F0030AD8B4C4
:102470001DEF92F0060AD8B41DEF92F0D9EF92F05A
:102480000BEC9BF0D9EF92F006018B4B8C2B22EFDB
:1024900092F01BECAAF0556E566A5650000AD8B45A
:1024A00054EF92F0D9EF92F05550010AD8B440EFB2
:1024B00092F0030AD8B422EF92F0010AD8B444EFA4
:1024C00092F0070AD8B41DEF92F0D9EF92F0000E07
:1024D000536E090E546E73EC9AF00009D8B473EF82
:1024E00092F075EF92F078EF92F0010E0601876F8F
:1024F0000601826BD9EF92F01BECAAF0556E566A7A
:102500005650000AD8B487EF92F0D9EF92F05550A8
:10251000010AD8B467EF92F0030AD8B478EF92F0CA
:10252000060AD8B478EF92F0D9EF92F0000E4E6E12
:10253000090E4F6EF5EC94F078EF92F01BECAAF0D8
:10254000556E566A5650000AD8B4A9EF92F0D9EFEA
:1025500092F05550010AD8B496EF92F0030AD8B41D
:1025600078EF92F0060AD8B478EF92F0D9EF92F0B3
:102570008251556E566A5650000AD8B4C2EF92F096
:10258000D9EF92F05550000AD8B4DDEF91F0010A6E
:10259000D8B426EF92F0030AD8B449EF92F0010ABA
:1025A000D8B47CEF92F0070AD8B49EEF92F0D9EF3E
:1025B00092F01200566EC5EF93F0B50E5618D8A4DF
:1025C000E4EF92F0E6EF92F0EDEF93F0010E7D6F05
:1025D000EDEF93F0620E5618D8B4F1EF92F0F3EFEE
:1025E00092F0F8EF92F0516A000E506EFBEF92F00D
:1025F000516A020E506E50C57DF6EDEF93F056C550
:102600007CF656C55BF556C5CFF5030E7D6FEDEF35
:1026100093F056C57BF65B5056245B6E0501CF5197
:102620005B24CF6F040E06017D6FEDEF93F056C56E
:102630006BF66C6B5B5056245B6E0501CF515B24CF
:10264000CF6F050E06017D6FEDEF93F056504F6E84
:102650004E6A4E506B134F506C135B5056245B6E9A
:102660000501CF515B24CF6F06016A6B000E696FC5
:102670006B516C11D8B43FEF93F041EF93F046EFFC
:1026800093F0536A070E526E49EF93F0536A060EA9
:10269000526E52C57DF6EDEF93F05B5056245B6EA3
:1026A0000501CF515B24CF6F0601694B6A2B6B513B
:1026B000695D6C516A59D8A060EF93F062EF93F0B6
:1026C000EDEF93F0060E7D6FEDEF93F05B50561833
:1026D000D8B46DEF93F06FEF93F074EF93F0556A09
:1026E000000E546E77EF93F0556A080E546E54C581
:1026F0007DF6EDEF93F00501CF515618D8A483EF86
:1027000093F085EF93F0C1EF93F0050E06017C196D
:10271000D8A48DEF93F08FEF93F0C1EF93F07B058A
:10272000D8A495EF93F097EF93F0AAEF93F07E5132
:10273000D8B49DEF93F09FEF93F0C1EF93F0010EAB
:102740007F6F9A0E0501606FFC0E616FE5ECAEF0D5
:10275000C1EF93F07B51D8A4B0EF93F0B2EF93F0B8
:10276000C1EF93F07E51D8B4B8EF93F0BAEF93F085
:10277000C1EF93F0770E0501606FFC0E616FE5EC21
:10278000AEF006017D6BEDEF93F006017D51000A7E
:10279000D8B4DDEF92F0010AD8B4EAEF92F0030A60
:1027A000D8B4FFEF92F0010AD8B409EF93F0070A0A
:1027B000D8B417EF93F0010AD8B426EF93F0030AC8
:1027C000D8B466EF93F0010AD8B44DEF93F00F0A36
:1027D000D8B47BEF93F0EDEF93F01200E6EF94F0B6
:1027E00055503CECAFF00501D405D8A4FAEF93F0B6
:1027F000FCEF93F0A8EF94F05550D8B402EF94F0AA
:1028000004EF94F0A8EF94F00601785109E1C70EA7
:10281000775DD8A00EEF94F010EF94F028EF94F0CD
:10282000000E056E090E066E640E076E090E086E28
:102830000A6A640E096EAAEC97F00601786B640EC2
:10284000776F000E7725D96E090E7821DA6EDF6A70
:10285000000E7725D96E090E7821DA6E55C5DFF4A2
:10286000774B782B000E7725D96E090E7821DA6E1A
:10287000DF6A000E0C6E090E0D6E75C60EF576C67B
:102880000FF559ECA5F00C500D10D8B44AEF94F0A8
:102890004CEF94F054EF94F0010E0601886F020E95
:1028A0000501D46FA8EF94F073C6F6F474C6F7F47C
:1028B000000EF86E0800F5500009D8B462EF94F0ED
:1028C00064EF94F07FEF94F0000E0C6E090E0D6E25
:1028D00073C60EF574C60FF559ECA5F00C500D102B
:1028E000D8B475EF94F077EF94F07FEF94F0020E88
:1028F0000601886F020E0501D46FA8EF94F071C62F
:10290000F6F472C6F7F4000EF86E0800F5500009F0
:10291000D8B48DEF94F08FEF94F0A8EF94F0000E00
:102920000C6E090E0D6E71C60EF572C60FF559ECE0
:10293000A5F00C500D10D8B4A0EF94F0A2EF94F0D5
:10294000A8EF94F0030E0601886F020E0501D46F04
:102950000A0E5518D8B4AFEF94F0B1EF94F0BAEF77
:1029600094F00D0E5518D8A4B8EF94F0BAEF94F087
:10297000D4EF94F00501D351D8B4C1EF94F0C3EF74
:1029800094F0E6EF94F0000ED325D96EDA6A080EC3
:10299000DA22DF6A000E4E6E080E4F6EA2EC9BF03C
:1029A0000501D36BE6EF94F05F0E0501D361DBEF19
:1029B00094F0DDEF94F0D0EF94F0000ED325D96EB3
:1029C000DA6A080EDA2255C5DFF4D32B550E056EF0
:1029D000050E066E71ECADF00009D8A4F2EF94F08C
:1029E000F4EF94F0F0EF93F012004EC50CF54FC5E4
:1029F0000DF5A80E0E6EFF0E0F6E59ECA5F00CC56E
:102A000081F50DC582F5050181518211D8A40BEF26
:102A100095F00DEF95F00FEF95F0F5EF95F0060EB0
:102A20008127000E8223806BBAEF95F0814B822BB9
:102A300081C5D9F482C5DAF4DF50D8B422EF95F01D
:102A400024EF95F063EF95F081C5D9F482C5DAF4EF
:102A50002D0EDE18D8B42FEF95F031EF95F063EF1F
:102A600095F081C5D9F482C5DAF42F0EDF643BEF0F
:102A700095F03DEF95F049EF95F081C5D9F482C509
:102A8000DAF4390EDF6447EF95F049EF95F063EF24
:102A900095F081C5D9F482C5DAF40D0EDE18D8B4EC
:102AA00054EF95F056EF95F063EF95F081C5D9F4AA
:102AB00082C5DAF40A0EDE18D8A461EF95F063EF50
:102AC00095F016EF95F081C5D9F482C5DAF4DF50A0
:102AD000D8B46DEF95F06FEF95F0C2EF95F081C52A
:102AE000D9F482C5DAF40D0EDE18D8B47AEF95F079
:102AF0007CEF95F0C2EF95F081C5D9F482C5DAF488
:102B00000A0EDE18D8A487EF95F089EF95F08BEFC9
:102B100095F0C2EF95F081C51AF582C51BF57E0EC2
:102B20001C6E050E1D6E1F6A0A0E1E6E010E206EB3
:102B3000E7EC85F005018051020D760EF324D96E85
:102B4000050EF420DA6E1AC5DEF41BC5DDF4802B09
:102B50007E51811907E17F518219D8A4B2EF95F017
:102B6000B4EF95F0B6EF95F0C2EF95F07EC581F524
:102B70007FC582F5030E8065C0EF95F0C2EF95F03A
:102B800018EF95F0040E8019D8A4C9EF95F0CBEF9B
:102B900095F0F5EF95F076C514F677C515F678C57E
:102BA00016F679C517F67AC518F67BC519F67CC5F1
:102BB0001AF67DC51BF6010E0601136FEE0E050118
:102BC000606FFA0E616F76C562F577C563F578C5FB
:102BD00064F579C565F57AC566F57BC567F57CC58D
:102BE00068F57DC569F5E5ECAEF01200000E216ECA
:102BF000000E226E000E236E000E246E256A2EEF4C
:102C000096F025501A24D96E000E1B20DA6EDF5084
:102C10001E6ED00E1E241F6E206AFF0E202221C5BC
:102C20000EF522C50FF523C510F524C511F50A0EC2
:102C3000126E000E136E000E146E000E156EC7ECB1
:102C4000AAF01F500E24216E20500F20226E000E7D
:102C50001020236E000E1120246E252A25501A24E0
:102C6000D96E000E1B20DA6E2F0EDF643AEF96F05D
:102C70003CEF96F04AEF96F025501A24D96E000EDC
:102C80001B20DA6E390EDF6448EF96F04AEF96F0BB
:102C900001EF96F025501A24D96E000E1B20DA6E33
:102CA0002E0EDE18D8A457EF96F059EF96F0CBEF22
:102CB00096F0252A8AEF96F025501A24D96E000E38
:102CC0001B20DA6EDF501E6ED00E1E241F6E206A8F
:102CD000FF0E202221C50EF522C50FF523C510F5E4
:102CE00024C511F50A0E126E000E136E000E146E3E
:102CF000000E156EC7ECAAF01F500E24216E205056
:102D00000F20226E000E1020236E000E1120246E64
:102D1000252A1C061C50D8B490EF96F092EF96F03E
:102D2000CBEF96F025501A24D96E000E1B20DA6ED8
:102D30002F0EDF649EEF96F0A0EF96F0CBEF96F0AB
:102D400025501A24D96E000E1B20DA6E390EDF646E
:102D5000ACEF96F0AEEF96F05CEF96F0CBEF96F01E
:102D600021C50EF522C50FF523C510F524C511F5B3
:102D70000A0E126E000E136E000E146E000E156E0B
:102D8000C7ECAAF00EC521F50FC522F510C523F535
:102D900011C524F51C061C50D8A4D1EF96F0D3EF32
:102DA00096F0B0EF96F021C51AF522C51BF523C5A4
:102DB0001CF524C51DF51200010E286E25BEE3EF9B
:102DC00096F0E6EF96F0010EE7EF96F0000E2B6E10
:102DD000CAC529F5CBC52AF52B50D8B4F2EF96F029
:102DE000F4EF96F009EF97F02906D8A02A062B50A9
:102DF000D8A4FDEF96F0FFEF96F004EF97F0276A66
:102E00002B0E266E07EF97F0276A2D0E266E26C52D
:102E10002BF52D6A1F0E2C6E0701F76B52EF97F002
:102E20002C06D8A02D06D80E2C24D96E070E2D20E6
:102E3000DA6E22C505F523C506F524C507F525C5B7
:102E400008F50A0E096E000E0A6E000E0B6E000EDB
:102E50000C6EE4ECA0F005C50FF506C510F517ECF7
:102E6000AEF00F50300FDF6E286A2906D8A02A0670
:102E700022C505F523C506F524C507F525C508F5C2
:102E80000A0E096E000E0A6E000E0B6E000E0C6E1E
:102E9000EEEC9EF005C522F506C523F507C524F521
:102EA00008C525F52DBE5DEF97F02D5008E12C04E7
:102EB000D8A05DEF97F05FEF97F086EF97F0225084
:102EC000231024102510D8A468EF97F06AEF97F02C
:102ED00010EF97F02850D8A470EF97F072EF97F0AA
:102EE00010EF97F02ABE7DEF97F02A5008E12904F1
:102EF000D8A07DEF97F07FEF97F086EF97F058B26C
:102F000084EF97F086EF97F010EF97F02B50D8B43E
:102F10008CEF97F08EEF97F099EF97F02C06D8A0F2
:102F20002D06D80E2C24D96E070E2D20DA6E2BC557
:102F3000DFF420C517F521C518F5D80E2C24196E1D
:102F4000070E2D201A6E29C51BF52AC51CF5B0ECFD
:102F5000A7F01200000E226E000E236E000E246EEB
:102F6000000E1F6E000E206E000E216E07C51FF5AD
:102F700008C520F505C522F506C523F5FF0E221468
:102F80000B6EFF0E23140C6E7F0E24140D6EFF0EBD
:102F90001F140E6EFF0E20140F6E7F0E2114106E84
:102FA0000B500E5C0C500F580D501058D8B0DBEF82
:102FB00097F0DDEF97F044EF98F0FF0E1F140B6EC3
:102FC000FF0E20140C6E7F0E21140D6E0B500E6E32
:102FD0000C500F6E0D50106E116A09500E24126EB7
:102FE0000A500F20136E000E1020146E000E1120D8
:102FF000156EFF0E2214166EFF0E2314176E7F0E31
:103000002414186E1650196E17501A6E18501B6E35
:103010001C6A1250195C13501A5814501B581C503B
:10302000800A1D6E1550800A1D58D8B01AEF98F00E
:103030001CEF98F044EF98F009501F260A50202208
:10304000095022260A5023221F06D8A020061FC599
:10305000D9F420C5DAF4DF501E6E2206D8A023066C
:1030600022C5D9F423C5DAF41EC5DFF40906D8A0B9
:103070000A0609500A10D8A440EF98F042EF98F0E1
:1030800024EF98F069EF98F009500A10D8B44BEF8C
:1030900098F04DEF98F069EF98F01FC5D9F420C56E
:1030A000DAF4DF501E6E1F4A202A22C5D9F423C548
:1030B000DAF41EC5DFF4224A232A0906D8A00A063C
:1030C00009500A10D8A467EF98F069EF98F04DEF17
:1030D00098F012000B500C10D8B471EF98F073EF09
:1030E00098F01DEF99F00BC5D9F40CC5DAF4DF5058
:1030F000D8A47DEF98F07FEF98F081EF98F01DEF66
:1031000099F006017A51120D000EF3240D6E0C0E8B
:10311000F4200E6E0DC505F50EC506F520EE01F086
:103120000B50D9260C50DA22DEC407F5DDC408F5B1
:1031300008ECAFF0020E0D24056E000E0E20066E98
:1031400020EE03F00B50D9260C50DA22DEC407F52E
:10315000DEC408F5DEC409F5DEC40AF517ECADF0EF
:10316000060E0D24056E000E0E20066E20EE07F0F2
:103170000B50D9260C50DA22DEC407F5DEC408F560
:10318000DEC409F5DEC40AF517ECADF00A0E0D2415
:10319000056E000E0E20066E20EE0BF00B50D926A9
:1031A0000C50DA22DEC407F5DEC408F5DEC409F5EA
:1031B000DEC40AF517ECADF00E0E0D24056E000E00
:1031C0000E20066E20EE0FF00B50D9260C50DA229E
:1031D000DEC407F5DDC408F508ECAFF0100E0D24D1
:1031E000056E000E0E20066E20EE11F00B50D92653
:1031F0000C50DA22DEC407F5DDC408F508ECAFF0A8
:1032000006017A291F0B7A6F200E5A600AEF99F097
:103210000CEF99F00FEF99F05A2A11EF99F0654BE6
:10322000662B20EE01F00B50D9260C50DA22DEC4BA
:1032300067F6DDC468F6010E796F120012C51AF543
:1032400013C51BF51A501B10D8A429EF99F02BEFCA
:1032500099F02FEF99F0770E1A6EFF0E1B6E1D6A14
:10326000000E1C6E36EF99F01C4A1D2A1C501A24C1
:10327000146E1D501B20156E14C5F6F415C5F7F419
:10328000000EF86E3F0EF76403D00800F55005D02D
:10329000F6C4E9F4F7C4EAF4EF500009D8A453EFF8
:1032A00099F055EF99F034EF99F01CC516F51DC54E
:1032B00017F5CAC518F5CBC519F558B062EF99F0E6
:1032C00064EF99F09FEF99F071EF99F0086A200E82
:1032D000076E10C509F511C50AF569ECA3F01C4A83
:1032E0001D2A18501C5C1D50800A146E1950800A4B
:1032F0001458D8A07EEF99F080EF99F066EF99F01E
:103300009FEF99F01AC5F6F41BC5F7F4000EF86E9E
:103310003F0EF76403D00800F55005D0F6C4E9F479
:10332000F7C4EAF4EF50146E1450076E086A10C523
:1033300009F511C50AF569ECA3F01A4A1B2A16060D
:10334000D8A01706162806E11728D8A4AAEF99F0E6
:10335000ACEF99F082EF99F058A0B1EF99F0B3EF8C
:1033600099F0CFEF99F0C0EF99F0086A200E076E40
:1033700010C509F511C50AF569ECA3F01C4A1D2A10
:1033800018501C5C1D50800A146E1950800A145885
:10339000D8A0CDEF99F0CFEF99F0B5EF99F01200EA
:1033A00006018251D8B4D7EF99F0D9EF99F0DBEF4D
:1033B00099F072EF9AF08751D8A4E1EF99F0E3EF1A
:1033C00099F000EF9AF0E2ECADF006014251055C95
:1033D0004C6E435106584D6E445107584E6E455140
:1033E00008584F6E4F504E100BE1D00E4C5C070E3C
:1033F0004D58D8A0FEEF99F000EF9AF026EF9AF022
:10340000876BE2ECADF005C542F606C543F607C58D
:1034100044F608C545F6DF0E186EFE0E196E640EF2
:103420001A6EFF0E1B6EC80E1C6EFF0E1D6EB80EC0
:103430001E6E0B0E1F6E000E206E000E216ED3EC62
:10344000ACF0030E0601826F72EF9AF08551D8B48A
:103450002CEF9AF02EEF9AF032EF9AF0FCECAAF0F3
:1034600072EF9AF0E2ECADF006014651055C4C6E4D
:10347000475106584D6E485107584E6E49510858ED
:103480004F6E4F504E100BE1880E4C5C130E4D5892
:10349000D8A04DEF9AF04FEF9AF072EF9AF0E2EC6D
:1034A000ADF005C546F606C547F607C548F608C59A
:1034B00049F6670E186EFF0E196E640E1A6EFF0E37
:1034C0001B6EC80E1C6EFF0E1D6ED00E1E6E070EFC
:1034D0001F6E000E206E000E216ED3ECACF0040EB9
:1034E0000601826F120053C50CF554C50DF5A10EEF
:1034F0000E6EFF0E0F6E59ECA5F00CC585F50DC5CF
:1035000086F5050185518611D8A489EF9AF08BEFD5
:103510009AF08EEF9AF0000E0AEF9BF0060E8527C8
:10352000000E862385C51AF586C51BF5000E1C6E98
:10353000000E1D6E1F6A0A0E1E6E010E206EE7EC55
:1035400085F01AC581F51BC582F51CC583F51DC51F
:1035500084F5050184BFB9EF9AF08451831182117B
:1035600006E18105D8B0B7EF9AF0B9EF9AF0BBEF5A
:103570009AF08BEF9AF085C505F586C506F5086AC1
:103580000A0E076EADECACF005C57FF506C580F5FB
:1035900005017F518011D8A4D0EF9AF0D2EF9AF0B4
:1035A000D4EF9AF08BEF9AF0010E7F257D6F000E1D
:1035B00080217E6F06015A515B115C11D8B4E3EF94
:1035C0009AF0E5EF9AF0FAEF9AF07DC54EF57EC5D8
:1035D0004FF581C550F582C551F502D8FAEF9AF042
:1035E0000500FA6E5A51FD6E5B51FE6E5C51FF6E26
:1035F000FA501200BD0E0501606FFC0E616F81C5AF
:1036000062F582C563F583C564F584C565F5E5ECAF
:10361000AEF0010E1200E2ECADF006014A51055C7D
:103620002B6E4B5106582C6E4C5107582D6E4D5138
:1036300008582E6E2E5008E12D04D8A022EF9BF0E2
:1036400024EF9BF02CEF9BF0FF0E2B6EFF0E2C6EE9
:10365000000E2D6E000E2E6E894B8A2B89518A1119
:10366000D8A435EF9BF037EF9BF042EF9BF08A6BCD
:10367000010E896F000E4E6F000E4F6F000E506FDF
:10368000000E516F2BC58FF62CC590F691519211FB
:10369000D8B44DEF9BF04FEF9BF064EF9BF091514E
:1036A000276E9251286E296A2A6A27502B5C28506F
:1036B0002C5829502D582A502E58D8B062EF9BF024
:1036C00064EF9BF068EF9BF02BC591F62CC592F64A
:1036D0009351276E9451286E296A2A6A2B50275CD1
:1036E0002C5028582D5029582E502A58D8B07BEFEE
:1036F0009BF07DEF9BF081EF9BF02BC593F62CC5E3
:1037000094F62B504E272C504F232D5050232E50E3
:1037100051234EC61AF54FC61BF550C61CF551C6AF
:103720001DF589C61EF58AC61FF5206A216A77EC49
:10373000A6F01AC595F61BC596F60601846B77ECC4
:10374000AFF012004EC50CF54FC50DF5050E0E6E0F
:10375000FE0E0F6E59ECA5F00C500D10D8B4B3EF5F
:103760009BF0B5EF9BF0BAEF9BF0010E0601876F5F
:1037700037EF9CF04EC50CF54FC50DF5C60E0E6E1D
:10378000FD0E0F6E59ECA5F00C500D10D8B4CBEF18
:103790009BF0CDEF9BF0D2EF9BF0010E0601866F00
:1037A00037EF9CF04EC50CF54FC50DF5900E0E6E23
:1037B000FD0E0F6E59ECA5F00C500D10D8B4E3EFD0
:1037C0009BF0E5EF9BF0EAEF9BF0020E0601866F9F
:1037D00037EF9CF04EC50CF54FC50DF5B60E0E6ECD
:1037E000FE0E0F6E59ECA5F00C500D10D8B4FBEF87
:1037F0009BF0FDEF9BF037EF9CF04EC505F54FC5F4
:1038000006F5086A2C0E076EADECACF005C553F555
:1038100006C554F553505410D8B411EF9CF013EF73
:103820009CF037EF9CF020EE01F05350D926545015
:10383000DA22310EDE18D8B420EF9CF022EF9CF093
:1038400028EF9CF06F0E516EFF0E526E2CEF9CF025
:10385000350E516EFF0E526EA30E0501606FFD0E08
:10386000616F51C562F552C563F5E5ECAEF012002B
:10387000010E2A6ECAC52BF5CBC52CF52F6A1F0E7B
:103880002E6E0701F76B80EF9CF02E06D8A02F0656
:1038900022500F0B2D6E0A0E2D6051EF9CF053EF4E
:1038A0009CF057EF9CF0300E2D2659EF9CF0370E10
:1038B0002D26D80E2E24D96E070E2F20DA6E2DC598
:1038C000DFF42A6A2B06D8A02C0622C526F523C5CC
:1038D00027F524C528F525C529F5050E75EF9CF0BB
:1038E000D8902932283227322632E82E70EF9CF009
:1038F00026C522F527C523F528C524F529C525F5B4
:103900002FBE8CEF9CF02F5009E1020E2E5CD8A048
:103910008CEF9CF08EEF9CF0B5EF9CF022502310C2
:1039200024102510D8A497EF9CF099EF9CF045EF58
:103930009CF02A50D8A49FEF9CF0A1EF9CF045EF9B
:103940009CF02CBEACEF9CF02C5008E12B04D8A0CE
:10395000ACEF9CF0AEEF9CF0B5EF9CF058B2B3EF3B
:103960009CF0B5EF9CF045EF9CF020C517F521C504
:1039700018F5D80E2E24196E070E2F201A6E2BC59F
:103980001BF52CC51CF5B0ECA7F012000D6E21EE56
:103990000EF1050EDE6AE806FDE2B50E0E6E620E51
:1039A0000F6E0DC510F506C511F509C512F50A50C3
:1039B000136E1B6A1A6A020E186E0E0E1824D96E48
:1039C000DA6A050EDA22DF501B241B6E1A501B2404
:1039D0001A6E182A050E1864F0EF9CF0F2EF9CF0B6
:1039E000DDEF9CF0156A000E146E0CEF9DF0145084
:1039F00007240B6E155008200C6E0BC5F6F40CC591
:103A0000F7F4000EF86E0800F5501B241B6E1A50D8
:103A10001B241A6E144A152A0950145C0A501558B2
:103A2000D8A015EF9DF017EF9DF0F7EF9CF0196A05
:103A30000E0E1924D96EDA6A050EDA22DF5024EC54
:103A4000AFF0192A050E196428EF9DF02AEF9DF0BA
:103A500018EF9DF0176A000E166E41EF9DF016509C
:103A600007240B6E175008200C6E0BC5F6F40CC51E
:103A7000F7F4000EF86E0800F55024ECAFF0164A8B
:103A8000172A0950165C0A501758D8A04AEF9DF023
:103A90004CEF9DF02FEF9DF01B5024ECAFF01A502F
:103AA00024ECAFF0120006C5D9F407C5DAF4240EF1
:103AB000DE18D8B45EEF9DF060EF9DF063EF9DF0EF
:103AC000000EDCEF9DF00A6A010E0D6E71EF9DF0A5
:103AD0000D500624D96E000E0720DA6EDF500A1A48
:103AE0000D2A0D500624D96E000E0720DA6EDF5025
:103AF000D8B47DEF9DF07FEF9DF08EEF9DF00D50DF
:103B00000624D96E000E0720DA6E2A0EDE18D8A41D
:103B10008CEF9DF08EEF9DF068EF9DF00D50062428
:103B2000D96E000E0720DA6E2A0EDE18D8B49BEF8D
:103B30009DF09DEF9DF09FEF9DF060EF9DF00D508B
:103B40000624086E000E0720096E010E0824D96EA7
:103B5000000E0920DA6EDF50A0ECA9F00B6E0D50BC
:103B60000624086E000E0720096E020E0824D96E86
:103B7000000E0920DA6EDF50A0ECA9F00C6E0BBE2F
:103B8000C4EF9DF0C6EF9DF060EF9DF00CBECDEF51
:103B90009DF0CBEF9DF0CFEF9DF060EF9DF00B38E7
:103BA000F00B0C100A18D8B4D8EF9DF0DBEF9DF0A5
:103BB000010EDCEF9DF0000E1200010E2D6ECAC545
:103BC0002EF5CBC52FF5316A1F0E306E0701F76B4E
:103BD00026EF9EF03006D8A03106D80E3024D96EDC
:103BE000070E3120DA6E29C505F52AC506F52BC565
:103BF00007F52CC508F50A0E096E000E0A6E000EB8
:103C00000B6E000E0C6E1AECA9F00550300FDF6E33
:103C10002D6A2E06D8A02F0629C51AF52AC51BF530
:103C20002BC51CF52CC51DF50A0E1E6E000E1F6E51
:103C3000000E206E000E216E77ECA6F01AC529F555
:103C40001BC52AF51CC52BF51DC52CF530503110B0
:103C5000D8B42DEF9EF02FEF9EF056EF9EF0295036
:103C60002A102B102C10D8A438EF9EF03AEF9EF0BB
:103C7000EAEF9DF02D50D8A440EF9EF042EF9EF069
:103C8000EAEF9DF02FBE4DEF9EF02F5008E12E047D
:103C9000D8A04DEF9EF04FEF9EF056EF9EF058B239
:103CA00054EF9EF056EF9EF0EAEF9DF027C517F512
:103CB00028C518F5D80E3024196E070E31201A6E5B
:103CC0002EC51BF52FC51CF5B0ECA7F012000501A1
:103CD00080BF6FEF9EF06DEF9EF08EEF9EF0930E23
:103CE000896FFE0E8A6F7DC54CF57EC54DF57FC58B
:103CF0004EF580C54FF54C1E4D1E4E1E4F1E4C2AD4
:103D0000000E4D224E224F224CC58BF54DC58CF531
:103D10004EC58DF54FC58EF59AEF9EF0EB0E896F6F
:103D2000FF0E8A6F7DC58BF57EC58CF57FC58DF541
:103D300080C58EF58BC51AF58CC51BF58DC51CF598
:103D40008EC51DF5800E1E6E960E1F6E980E206E8F
:103D5000000E216E77ECA6F01AC581F51BC582F521
:103D60001CC583F51DC584F58BC505F58CC506F509
:103D70008DC507F58EC508F5800E096E960E0A6E84
:103D8000980E0B6E000E0C6E1AECA9F005C585F5A9
:103D900006C586F507C587F508C588F57BC560F5B6
:103DA0007CC561F55A0E0501626FFE0E636F89C511
:103DB00064F58AC565F581C566F582C567F583C575
:103DC00068F584C569F585C56AF586C56BF587C54F
:103DD0006CF588C56DF561ECACF012000E6A0CBE96
:103DE000F6EF9EF0F4EF9EF000EF9FF00C1E0B1E1E
:103DF0000A1E096C000E0A220B220C22010E0E6E06
:103E000008BE07EF9FF005EF9FF011EF9FF0081E2F
:103E1000071E061E056C000E062207220822010E50
:103E20000E1A000E0F6E000E106E000E116E000EB8
:103E3000126E09500A100B100C10D8B422EF9FF02C
:103E400024EF9FF05AEF9FF0010E0D6E2EEF9FF0C2
:103E5000D89009360A360B360C360D2A0CAE33EFE5
:103E60009FF035EF9FF028EF9FF0D8900F36103677
:103E7000113612360950055C0A5006580B50075887
:103E80000C500858D8A047EF9FF049EF9FF052EF31
:103E90009FF00950055E0A50065A0B50075A0C5005
:103EA000085A0F80D8900C320B320A3209320D2E8C
:103EB00035EF9FF00E50D8B460EF9FF062EF9FF0A7
:103EC0006AEF9FF0121E111E101E0F6C000E1022C2
:103ED000112212220FC505F510C506F511C507F50B
:103EE00012C508F5120048ECAFF021EE15F1080EEE
:103EF000EBC4DBF4E806FCE26DECAFF005C513F5AE
:103F000006C514F51E6A06017951D8B48AEF9FF0F0
:103F10008CEF9FF08DEF9FF01E807BECAFF00009DF
:103F2000D8B495EF9FF097EF9FF098EF9FF01E8227
:103F30001550D8B49EEF9FF0A0EF9FF0A1EF9FF037
:103F40001E847EECAFF00009D8B4A9EF9FF0ABEF70
:103F50009FF0ACEF9FF01E8610C5D9F411C5DAF4BE
:103F6000010EDF6E20EE01F01050D9261150DA223A
:103F700012C5DFF4020E1024056E000E1120066E2D
:103F800013C507F514C508F50A6A0F0E096EE9ECAA
:103F9000ABF0110E1024056E000E1120066E16C532
:103FA00007F517C508F508ECAFF020EE13F0105038
:103FB000D9261150DA221EC5DFF420EE14F010507D
:103FC000D9261150DA22DF6A150E1024056E000E74
:103FD0001120066E65C607F566C608F508ECAFF059
:103FE0001200050E0501D065F8EF9FF0FAEF9FF083
:103FF0006CEFA0F0240E07010019D8B402EFA0F076
:1040000004EFA0F006EFA0F06CEFA0F0000E066E3B
:10401000070E076E53EC9DF00009D8A412EFA0F034
:1040200014EFA0F016EFA0F06CEFA0F0010E060167
:104030002E27000E2F233023312303C7CFF604C7CA
:10404000D0F605C7D1F6D26B000E056E070E066ED0
:104050009F0E076E060E086E180E096EC6ECA1F0D4
:104060000601D36FCF0E056E060E066EF00E076EBC
:10407000FF0E086EDFECA9F005500610D8A443EF40
:10408000A0F045EFA0F050EFA0F09F0E05018F6F5C
:10409000060E906FD3C691F580EC8DF06CEFA0F01A
:1040A000CF0E056E060E066EEC0E076EFF0E086E46
:1040B000DFECA9F005500610D8A461EFA0F063EF83
:1040C000A0F06CEFA0F09F0E05018F6F060E906FB1
:1040D000D3C691F516EC8FF01200180E0501606F33
:1040E000FD0E616FE5ECAEF00501796B000E786FA7
:1040F0008EEFA0F0B60E606FFF0E616F78514E2408
:10410000D96E79514F20DA6EDF50526E5250626F85
:10411000636BE5ECAEF00501784B792B5050785D80
:1041200051507959D8A097EFA0F099EFA0F07AEF0D
:10413000A0F0D40E606FFF0E616FE5ECAEF00501EC
:104140007B6B000E7A6FD2EFA0F07A514E24D96EBD
:104150007B514F20DA6EDF507C6F1F0E7C65B3EF12
:10416000A0F0B5EFA0F0BDEFA0F07E0E7C65BBEF38
:10417000A0F0BDEFA0F0C2EFA0F0776B2E0E766F2F
:10418000C5EFA0F07CC576F5776BC30E606FFD0EB2
:10419000616F76C562F577C563F5E5ECAEF00501B4
:1041A0007A4B7B2B50507A5D51507B59D8A0DBEF76
:1041B000A0F0DDEFA0F0A5EFA0F0E80E606FFF0E1D
:1041C000616FE5ECAEF012000E6A08BEECEFA0F0F5
:1041D000EAEFA0F0F6EFA0F0081E071E061E056C21
:1041E000000E062207220822010E0E6E0CBEFDEF05
:1041F000A0F0FBEFA0F005EFA1F00C1E0B1E0A1EB5
:10420000096C000E0A220B220C2209500A100B1016
:104210000C10D8B40EEFA1F010EFA1F040EFA1F018
:10422000010E0D6E1AEFA1F0D89009360A360B3642
:104230000C360D2A0CAE1FEFA1F021EFA1F014EF08
:10424000A1F00950055C0A5006580B5007580C5055
:104250000858D8A02EEFA1F030EFA1F038EFA1F070
:104260000950055E0A50065A0B50075A0C50085A5E
:10427000D8900C320B320A3209320D2E21EFA1F008
:104280000E50D8B446EFA1F048EFA1F050EFA1F0E6
:10429000081E071E061E056C000E062207220822B5
:1042A00005C505F506C506F507C507F508C508F5F2
:1042B0001200E2ECADF005C51CF506C51DF507C5FD
:1042C0001EF508C51FF50EC5D9F40FC5DAF4DE508A
:1042D000DE10DE10DE10D8B470EFA1F072EFA1F0A6
:1042E00098EFA1F00EC5D9F40FC5DAF4DEC410F5CD
:1042F000DEC411F5DEC412F5DEC413F510501C5CEB
:10430000146E11501D58156E12501E58166E135013
:104310001F58176E175016100BE1100E145C270E65
:104320001558D8A096EFA1F098EFA1F0C4EFA1F036
:104330001C501D101E101F10D8A4A1EFA1F0A3EF58
:10434000A1F0ADEFA1F0010E186E000E196E000E77
:104350001A6E000E1B6EB5EFA1F01CC518F51DC539
:1043600019F51EC51AF51FC51BF50EC5D9F40FC5E5
:10437000DAF418C5DEF419C5DEF41AC5DEF41BC57F
:10438000DEF4010EC5EFA1F0000E12000F6A07C5A2
:10439000D9F408C5DAF405C5DEF406C5DDF40F2A44
:1043A0001BEFA2F005C5D9F406C5DAF42C0EDE1811
:1043B000D8B4DDEFA1F0DFEFA1F0ECEFA1F005C57F
:1043C000D9F406C5DAF42A0EDE18D8A4EAEFA1F073
:1043D000ECEFA1F019EFA2F005C5D9F406C5DAF4A7
:1043E000DF500E6E05C5D9F406C5DAF4DF6A2A0E71
:1043F0000E18D8A4FEEFA1F000EFA2F002EFA2F099
:1044000030EFA2F0010E05240A6E000E06200B6E9E
:104410000F50020DF3C40CF5F4C40DF50C50072435
:10442000D96E0D500820DA6E0AC5DEF40BC5DDF436
:104430000F2A054A062A05C5D9F406C5DAF4DF5065
:10444000D8B425EFA2F027EFA2F030EFA2F0095088
:104450000F5CD8A02EEFA2F030EFA2F0D2EFA1F0C7
:104460000F5012008FEFA2F010C5D9F411C5DAF485
:104470002F0EDF643EEFA2F040EFA2F04CEFA2F06F
:1044800010C5D9F411C5DAF4390EDF644AEFA2F091
:104490004CEFA2F050EFA2F0104A112A8FEFA2F0D9
:1044A000136A54EFA2F0132A13501024D96E000E91
:1044B0001120DA6E2F0EDF6460EFA2F062EFA2F03F
:1044C00070EFA2F013501024D96E000E1120DA6E96
:1044D000390EDF646EEFA2F070EFA2F053EFA2F09E
:1044E0000E0E136476EFA2F078EFA2F08BEFA2F03D
:1044F000D40E056E060E066E10C507F511C508F53B
:104500000A6A0F0E096EE9ECABF00601E36B010ECF
:10451000836F9BEFA2F013501026000E112210C5DE
:10452000D9F411C5DAF4DF50D8A499EFA2F09BEFCB
:10453000A2F034EFA2F012000906D8A00A0609285A
:1045400006E10A28D8A4A7EFA2F0A9EFA2F0B5EFE0
:10455000A2F0066A000E056E03EFA3F0054A062AD4
:10456000074A082A0906D8A00A0605C5D9F406C5CF
:10457000DAF4DF50D8B4BFEFA2F0C1EFA2F0F0EF51
:10458000A2F007C5F6F408C5F7F4000EF86E0800AF
:10459000F5500009D8B4CFEFA2F0D1EFA2F0F0EFC0
:1045A000A2F009500A10D8B4D8EFA2F0DAEFA2F0C6
:1045B000F0EFA2F005C5D9F406C5DAF4DF500B6EB2
:1045C00007C5F6F408C5F7F4000EF86E0800F550BC
:1045D0000B18D8B4EEEFA2F0F0EFA2F0AEEFA2F01D
:1045E00005C5D9F406C5DAF4DF500B6E07C5F6F43D
:1045F00008C5F7F4000EF86E0800F5500B5C056E68
:10460000066AD8A0060612000D6A000E0C6E05C5DB
:10461000D9F406C5DAF4DEC4F6F4DDC4F7F4000E0E
:10462000F86E0800F5502A0AD8A419EFA3F01BEF82
:10463000A3F04EEFA3F005C5D9F406C5DAF4DE2ADF
:10464000000EDD2207C5D9F408C5DAF4DFC409F588
:10465000020EDE26DFC40AF5000EDD2209C5D9F4FC
:104660000AC5DAF4DEC40CF5DDC40DF564EFA3F081
:104670000A0E0C02F3C409F5F4C40AF50D02F35056
:104680000A260B5009240C6E000E0A200D6E05C57B
:10469000D9F406C5DAF4DE2A000EDD2205C5D9F408
:1046A00006C5DAF4DEC4F6F4DDC4F7F4000EF86EE5
:1046B0000800F550D00F0B6E090E0B6462EFA3F0EB
:1046C00064EFA3F038EFA3F00CC505F50DC506F5B2
:1046D000120009500A10D8B470EFA3F072EFA3F0E3
:1046E0007BEFA3F009500A10D8A479EFA3F07BEF79
:1046F000A3F080EFA3F0075072ECAFF0CDEFA3F082
:1047000020EE09F00950D9260A50DA22DE50DE10D8
:10471000D8B48DEFA3F08FEFA3F0AAEFA3F020EEB3
:1047200009F00950D9260A50DA2210EE02F0095099
:10473000E1260A50E222DE50E65CE650800A0F6E67
:10474000DE50800A0F58D8B0A8EFA3F0AAEFA3F06C
:10475000CDEFA3F020EE02F00950D9260A50DA225C
:10476000DEC40BF5DDC40CF509C5D9F40AC5DAF4CD
:10477000DEC40DF5DDC40EF50B500D24D96E0C50C2
:104780000E20DA6E07C5DFF420EE02F00950D926BC
:104790000A50DA22DE2A000EDD22120006016D4BDD
:1047A0006E2BE2ECADF005C552F506C553F507C515
:1047B00054F508C555F506012A512B112C112D1160
:1047C000D8A4E5EFA3F0E7EFA3F006EFA4F0525072
:1047D000531054105510D8A4F0EFA3F0F2EFA3F04B
:1047E000FCEFA3F0010E2A6F000E2B6F000E2C6F52
:1047F000000E2D6F31EFA4F052C52AF653C52BF6EB
:1048000054C52CF655C52DF631EFA4F02A51525C53
:104810004E6E2B5153584F6E2C515458506E2D5193
:104820005558516E515050100BE1E80E4E5C030E7E
:104830004F58D8A01EEFA4F020EFA4F031EFA4F061
:104840004B0E0501606FFD0E616F6DC662F56EC6A1
:1048500063F5E5ECAEF006016E6B000E6D6FFCEFDC
:10486000A3F0120026C5D9F427C5DAF42D0EDE1800
:10487000D8B43DEFA4F040EFA4F0010E41EFA4F056
:10488000000E326E3250D8A448EFA4F04AEFA4F0E4
:1048900057EFA4F026C5D9F427C5DAF42B0EDE189D
:1048A000D8A455EFA4F057EFA4F059EFA4F0264A8E
:1048B000272A26C51AF527C51BF528C51CF5F6ECD1
:1048C00095F01AC52EF51BC52FF51CC530F51DC575
:1048D00031F53250D8A46FEFA4F071EFA4F07BEF64
:1048E000A4F02EC526F52FC527F530C528F531C50E
:1048F00029F594EFA4F02EC52AF52FC52BF530C568
:104900002CF531C52DF52A1E2B1E2C1E2D1E2A2AF4
:10491000000E2B222C222D222AC526F52BC527F589
:104920002CC528F52DC529F512004EC505F54FC536
:1049300006F511ECACF0065009E1060E055CD8A0B6
:10494000A4EFA4F0A6EFA4F0EFEFA4F0B50E0501DC
:10495000606FFD0E616F4EC5D9F44FC5DAF4DF50BC
:10496000506E5050626F636B20EE01F04E50D926AE
:104970004F50DA22DF50516E5150646F656B20EE5C
:1049800002F04E50D9264F50DA22DF50526E52506C
:10499000666F676B20EE03F04E50D9264F50DA2237
:1049A000DF50536E5350686F696B20EE04F04E5029
:1049B000D9264F50DA22DF50546E54506A6F6B6B19
:1049C00020EE05F04E50D9264F50DA22DF50556EBA
:1049D00055506C6F6D6BE5ECAEF0F6EFA4F08A0EFF
:1049E0000501606FFE0E616FE5ECAEF012004EC582
:1049F00005F54FC506F511ECACF0065009E1060EC1
:104A0000055CD8A006EFA5F008EFA5F051EFA5F0E2
:104A1000E70E0501606FFD0E616F4EC5D9F44FC5FD
:104A2000DAF4DF50506E5050626F636B20EE01F08D
:104A30004E50D9264F50DA22DF50516E5150646FDC
:104A4000656B20EE02F04E50D9264F50DA22DF502F
:104A5000526E5250666F676B20EE03F04E50D926AF
:104A60004F50DA22DF50536E5350686F696B20EE5F
:104A700004F04E50D9264F50DA22DF50546E545075
:104A80006A6F6B6B20EE05F04E50D9264F50DA223C
:104A9000DF50556E55506C6F6D6BE5ECAEF058EF16
:104AA000A5F0110E0501606FFF0E616FE5ECAEF031
:104AB00012000E500F10D8B460EFA5F062EFA5F011
:104AC000B6EFA5F00EC505F50FC506F511ECACF077
:104AD00005C510F506C511F5A1EFA5F00CC505F546
:104AE0000DC506F50EC507F50FC508F510C509F586
:104AF00011C50AF59CECA2F005500610D8A483EF6E
:104B0000A5F085EFA5F08BEFA5F00CC50CF50DC554
:104B10000DF5BAEFA5F0010E0C24056E000E0D2068
:104B2000066E0EC5F6F40FC5F7F4000EF86E080019
:104B3000F550076E086AADECACF005C50CF506C57E
:104B40000DF50C500D10D8B4A8EFA5F0AAEFA5F004
:104B5000B6EFA5F00CC5D9F40DC5DAF4DF50D8A432
:104B6000B4EFA5F0B6EFA5F06EEFA5F0000E0C6E59
:104B7000000E0D6E12000501CA51CB11D8A4C3EF6F
:104B8000A5F0C5EFA5F0CBEFA5F0CAC516F5CBC5CE
:104B900017F5D1EFA5F0FF0ECA25166EFF0ECB213B
:104BA000176E58A0D6EFA5F0D8EFA5F0E1EFA5F06D
:104BB00012C507F5086A10C509F511C50AF569ECB3
:104BC000A3F017BEE6EFA5F0E8EFA5F0EAEFA5F039
:104BD000EDEFA5F0176A000E166E156A000E146E42
:104BE000FDEFA5F0086A200E076E10C509F511C586
:104BF0000AF569ECA3F0144A152A1650145C1550F6
:104C0000800A136E1750800A1358D8A00AEFA6F036
:104C10000CEFA6F0F2EFA5F058B011EFA6F013EFED
:104C2000A6F01CEFA6F012C507F5086A10C509F535
:104C300011C50AF569ECA3F01200B60EF66E5E0E11
:104C4000F76E010EF86E01EED4F210EE10F00900CE
:104C5000F5C4EEF4E550E150FAE103EE00F011EE98
:104C600040F0EE6AE550E150FCE1E250FAE102EE7C
:104C700000F310EE00F1EE6AE550E150FCE1E25085
:104C8000FAE102EE00F210EE00F1EE6AE550E150BA
:104C9000FCE1E250FAE102EE00F1C80EEE6AE8062D
:104CA000FDE102EE00F0600EEE6AE806FDE101EEC5
:104CB00000F3F80EEE6AE806FDE101EE00F29F0E49
:104CC000EE6AE806FDE101EECAF10B0EEE6AE806B7
:104CD000FDE15B6A5A6A596A586A0401080E5D6F01
:104CE000000E5E6F000E5F6F000130EF88F0000E67
:104CF000226E000E236E000E246E000E256E1E50D6
:104D00001F1020102110D8B488EFA6F08AEFA6F06B
:104D1000C0EFA6F0010E266E94EFA6F0D8901E36D6
:104D20001F3620362136262A21AE99EFA6F09BEFBA
:104D3000A6F08EEFA6F0D8902236233624362536FC
:104D40001E501A5C1F501B5820501C5821501D58D3
:104D5000D8A0ADEFA6F0AFEFA6F0B8EFA6F01E50CA
:104D60001A5E1F501B5A20501C5A21501D5A228077
:104D7000D890213220321F321E32262E9BEFA6F011
:104D800022C51AF523C51BF524C51CF525C51DF53F
:104D900012000EC55AF60FC55BF610C55CF604018D
:104DA000109FC09EC89EE2ECADF005C53AF606C560
:104DB0003BF607C53CF608C53DF60501D46BD16B43
:104DC0000601826B0501D26B0601806B876B866BD7
:104DD000856B706B000E6F6F846B000E4E6F000E54
:104DE0004F6F000E506F000E516F890E056E060E4C
:104DF000066E086A000E076E0A6A0E0E096EABECAC
:104E0000ADF00601136BE2ECADF005C546F606C544
:104E100047F607C548F608C549F6E2ECADF005C50A
:104E200042F606C543F607C544F608C545F6120026
:104E30004EC51AF54FC51BF550C51CF551C51DF5DE
:104E4000640E1E6E000E1F6E000E206E000E216E90
:104E500077ECA6F01AC576F51BC577F51CC578F575
:104E60001DC579F54EC505F54FC506F550C507F5C5
:104E700051C508F5640E096E000E0A6E000E0B6E29
:104E8000000E0C6E1AECA9F005C57AF506C57BF587
:104E900007C57CF508C57DF5D50E0501606FFE0ED2
:104EA000616F76C562F577C563F578C564F579C538
:104EB00065F57AC566F57BC567F57CC568F57DC582
:104EC00069F5E5ECAEF012004EC51AF54FC51BF5BD
:104ED00050C51CF551C51DF50A0E1E6E000E1F6E45
:104EE000000E206E000E216E77ECA6F01AC576F546
:104EF0001BC577F51CC578F51DC579F54EC505F5BB
:104F00004FC506F550C507F551C508F50A0E096EDF
:104F1000000E0A6E000E0B6E000E0C6E1AECA9F05D
:104F200005C57AF506C57BF507C57CF508C57DF591
:104F3000570E0501606FFF0E616F76C562F577C58C
:104F400063F578C564F579C565F57AC566F57BC501
:104F500067F57CC568F57DC569F5E5ECAEF0120036
:104F600058A0B5EFA7F0B7EFA7F0C1EFA7F019C5AC
:104F700010F51AC511F517C512F518C513F5F6EC9D
:104F8000ACF01CBEC8EFA7F0C6EFA7F0CBEFA7F0C0
:104F90001C6A000E1B6E1F6A000E1E6EDBEFA7F070
:104FA000086A200E076E17C509F518C50AF569ECE1
:104FB000A3F01E4A1F2A1B501E5C1F50800A1D6E44
:104FC0001C50800A1D58D8A0E8EFA7F0EAEFA7F020
:104FD000D0EFA7F058B0EFEFA7F0F1EFA7F0FBEF9D
:104FE000A7F019C510F51AC511F517C512F518C5A2
:104FF00013F5F6ECACF012000501D151D8A403EF83
:10500000A8F005EFA8F02CEFA8F076C518F577C545
:1050100019F578C51AF579C51BF57AC51CF57BC558
:105020001DF57CC51EF57DC51FF57EC520F57FC528
:1050300021F5D3ECACF0010E0501D16F46EFA8F0DD
:105040000501D16B80C5D2F546EFA8F0050181516D
:1050500087ECACF046EFA8F01BECAAF04F6E506A5C
:105060005050000AD8B437EFA8F046EFA8F04F50E0
:10507000010AD8B420EFA8F0030AD8B426EFA8F0AC
:10508000060AD8B426EFA8F046EFA8F012000EC525
:1050900075F60FC576F610501110D8A452EFA8F08F
:1050A00054EFA8F05BEFA8F0EB0E0601736FFF0E54
:1050B000746F5FEFA8F010C573F611C574F6125047
:1050C0001310D8A466EFA8F068EFA8F06FEFA8F06F
:1050D000EB0E0601716FFF0E726F73EFA8F012C531
:1050E00071F613C572F6E2ECADF005C556F606C5CD
:1050F00057F607C558F608C559F614C552F615C532
:1051000053F616C554F617C555F60601786B000E12
:10511000776F0901006B010E0501D46F1200576E05
:10512000010E06013227000E332334233523575056
:10513000DAEC92F00A0E5718D8B4A1EFA8F0A3EF5A
:10514000A8F0ACEFA8F00D0E5718D8A4AAEFA8F05D
:10515000ACEFA8F0C2EFA8F00501D051D8B4B3EF7E
:10516000A8F0B5EFA8F0D4EFA8F0000ED025D96EC6
:10517000DA6A070EDA22DF6AF1EC9FF00501D06BE4
:10518000D4EFA8F0770E0501D061C9EFA8F0CBEFFE
:10519000A8F0BEEFA8F0000ED025D96EDA6A070E8F
:1051A000DA2257C5DFF4D02B12000501D151D8A463
:1051B000DCEFA8F0DEEFA8F0F9EFA8F04EC518F587
:1051C0004FC519F5640E1A6EFF0E1B6EC80E1C6ECD
:1051D000FF0E1D6E50C51EF551C51FF552C520F5B9
:1051E00053C521F5D3ECACF0010E0501D16F19EFD9
:1051F000A9F01BECAAF0556E5550D8A402EFA9F007
:1052000004EFA9F006EFA9F019EFA9F05504D8B4FE
:105210000CEFA9F00EEFA9F015EFA9F0580E05015B
:10522000606FFB0E616FE5ECAEF00501D16B54C50C
:10523000D2F5120009500A100B100C10D8B423EF4D
:10524000A9F025EFA9F055EFA9F0010E0D6E2FEF93
:10525000A9F0D89009360A360B360C360D2A0CAE5A
:1052600034EFA9F036EFA9F029EFA9F00950055C59
:105270000A5006580B5007580C500858D8A043EF56
:10528000A9F045EFA9F04DEFA9F00950055E0A50CD
:10529000065A0B50075A0C50085AD8900C320B3251
:1052A0000A3209320D2E36EFA9F005C505F506C5FF
:1052B00006F507C507F508C508F5120084EFA9F043
:1052C0009A0E056EFF0E066E9FEFA9F0240E056E76
:1052D000FF0E066E9FEFA9F0230E056EFF0E066E01
:1052E0009FEFA9F0C10E056EFE0E066E9FEFA9F0AE
:1052F000CB0E056EFE0E066E9FEFA9F04F0E056EEB
:10530000FF0E066E9FEFA9F005C5D9F406C5DAF4C5
:10531000DF50300AD8B460EFA9F0010AD8B466EFC4
:10532000A9F0030AD8B46CEFA9F0060AD8B472EF5A
:10533000A9F0010AD8B478EFA9F07EEFA9F0120025
:10534000056E2F0E0564A7EFA9F0A9EFA9F0B5EF40
