:0400000085EF00F098
:1000080042004200420042004200420042004200D8
:1000180042004200420042004200420042004200C8
:1000280042004200420042004200420042004200B8
:100038004200420042004200420042004200796011
:100048004200420042004200420042004200420098
:100058004200420042004200420042004200420088
:100068004200420042004200420042004200420078
:100078004200420042004200420042004200420068
:100088006A5E4200420042004200420042004200D2
:10009800805E4200420042004200420042004200AC
:1000A8004200420042004200420042004200420038
:1000B8004200420042004200420042004200420028
:1000C8004200420042004200420042004200420018
:1000D8004200420042004200420042004200420008
:1000E80042004200420042004200420042004200F8
:1000F80042004200420042004200420042004200E8
:06010800FF00B3EFB9F0A7
:10FA380000000100002100112004010021306400B1
:10FA4800020021300100AC00912001BB009120018F
:10FA5800CA00912000C000912000C500912000B18B
:10FA6800009120005B4750535D206C696E6B20400D
:10FA780033383430303B20636F6E6669677572695E
:10FA88006E6720666F7220313020487A2028524DE8
:10FA9800432B474741293B206177616974696E6749
:10FAA8002041434B0D0A000D0A5B4750535D206807
:10FAB80065616C74683A2072783D256C75206279AE
:10FAC8007465732C2076616C69643D256C752073B0
:10FAD800656E74656E6365732C206366675F61632A
:10FAE8006B65643D25640D0A000D0A5B4247393594
:10FAF8005D207369676E616C20525353493D2564DC
:10FB080020525352503D25642053494E523D25649E
:10FB180020525352513D25642064426D0D0A000D58
:10FB28000A4661727365657220626F6F743A204E7F
:10FB3800454F2D4D394E202B20424739352055440D
:10FB48005020286E6F6E2D626C6F636B696E67292B
:10FB58000D0A000D0A5B424739355D206F707469E4
:10FB68006F6E616C20636D64206E6F7420616363D7
:10FB780065707465642C20636F6E74696E75696E48
:10FB8800670D0A005B424739355D206272696E670E
:10FB98002D757020737461727465643B206C6F6F8F
:10FBA80070206973206E6F6E2D626C6F636B696E67
:10FBB800670D0A000D0A5B424739355D20504450F5
:10FBC8002064656163746976617465643B2072655D
:10FBD80061637469766174696E670D0A000D0A5B6A
:10FBE800424739355D2055445020736F636B657407
:10FBF800206F70656E3B206C696E6B207265616466
:10FC0800790D0A005B524D435D206E6F2076616C62
:10FC180069642066697820287374617475733D255A
:10FC280073292074696D653D000D0A5B42473935BB
:10FC38005D206261636B6F666620256C75206D734D
:10FC4800207468656E2072657472790D0A000D0A59
:10FC58005B424739355D20736F636B657420636C55
:10FC68006F7365643B2072656F70656E696E670DB2
:10FC78000A000D0A5B4750535D20554258204E41FB
:10FC88004B3A20636F6E6669672072656A656374B4
:10FC980065640D0A000D0A5B4750535D20554258B4
:10FCA8002041434B3A20636F6E6669672061636346
:10FCB80065707465640D0A000D0A5B424739355D4D
:10FCC80020646F776E6C696E6B20256C6420627996
:10FCD80074652873290D0A0041542B51494F50452A
:10FCE8004E3D312C302C22554450222C2225732293
:10FCF8002C25752C302C300041542B514943534747
:10FD0800503D312C312C222573222C22222C2222E8
:10FD18002C31005B424739355D20646F776E6C6922
:10FD28006E6B207061796C6F61643A2000205370AB
:10FD38006565643D252E3166206B6E2028252E31A1
:10FD480066206D70682900204669783D2573205328
:10FD58006174733D25732048444F503D252E31660C
:10FD68000025752C25732C25732C25732C252E31F5
:10FD7800662C252E31662C25640041542B514346B0
:10FD8800473D226E777363616E6D6F6465222C3315
:10FD98002C31005B4750535D206E61762072617490
:10FDA800653A20257520487A0D0A0041542B5143A5
:10FDB80046473D22696F746F706D6F6465222C3001
:10FDC8002C31002B51495552433A202270647064FB
:10FDD8006561637422000D0A5B424739355D205323
:10FDE800494D2025730D0A00256325632F256325BA
:10FDF800632F3230256325630020436F7572736566
:10FE08003D252E316620646567002B5149555243C4
:10FE18003A2022636C6F7365642200256325633A78
:10FE2800256325633A2563256300204C61743D25CD
:10FE380073204C6E673D2573002B51495552433A48
:10FE4800202272656376220041542B5153494D4458
:10FE580045543D312C300041542B514953454E44B3
:10FE68003D302C25750041542B5153494D53544175
:10FE7800543D31002B51494F50454E3A20302C30DB
:10FE88000041542B5149434C4F53453D30002041CC
:10FE98006C743D252E3166206D002573256C752EFA
:10FEA8002530376C750041542B4345445258533D17
:10FEB800300075732E6C6F636C782E696F002D2D72
:10FEC8002F2D2D2F2D2D2D2D0041542B4350534DCB
:10FED800533D300041542B51494143543D31002B8F
:10FEE8005153494D535441543A0052544B2066697A
:10FEF8007865640052544B20666C6F6174004154FD
:10FF08002B514952443D30002B43474154543A2029
:10FF1800310041542B4346554E3D310041542B434B
:10FF2800474154543F00494E46494E495459006987
:10FF38006E66696E697479002D2D3A2D2D3A2D2D36
:10FF48000044475053206669780041542B43504978
:10FF58004E3F00696E73657274656400686F6C6FFC
:10FF68006772616D00756E6B6E6F776E0053454EEC
:10FF780044204F4B0041542B514353510072656D3F
:10FF88006F76656400286E756C6C29005B47474185
:10FF98005D20005B524D435D200020446174653D47
:10FFA800006E6F20666978002B514952443A002B45
:10FFB800514353513A0025303258200054696D6539
:10FFC8003D004552524F5200524541445900207C51
:10FFD80020220041544530004E414E00696E6600B3
:10FFE8006E616E00220D0A0047474100524D4300E2
:08FFF8004154000D003E000021
:020000040001F9
:10000000376A000E366E2C502D10D8B40AEF80F0EF
:100010000CEF80F018EF80F02CC5D9F42DC5DAF480
:100020002AC5DEF42BC5DDF418EF80F02A4A2B2A0E
:100030002AC5D9F42BC5DAF4200EDE18D8B423EF84
:1000400080F026EF80F0010E27EF80F0000E3C6E6E
:100050003D6A3C503D10D8A430EF80F032EF80F084
:1000600016EF80F02AC5D9F42BC5DAF4DF502E6ED6
:100070002E503C6E3D6A3CC52FF5F70E2F26040E20
:100080002F6445EF80F047EF80F016EF80F0396A7B
:100090002D0E3C183D10D8A450EF80F052EF80F0A8
:1000A00058EF80F0010E396E2A4A2B2A64EF80F057
:1000B0002B0E3C183D10D8A460EF80F062EF80F06A
:1000C00064EF80F054EF80F0426A68EF80F0422ADB
:1000D00042502A24D96E000E2B20DA6EDF50D8B49D
:1000E00074EF80F076EF80F0ACEF80F042502A247D
:1000F000D96E000E2B20DA6EDF502E6E370E4224A2
:10010000F66EF76AFF0EF722F86A000EF822080072
:10011000F5502E18D8B48FEF80F091EF80F067EF94
:1001200080F042502A24D96E000E2B20DA6EDF5068
:100130002E6E2E0E4224F66EF76AFF0EF722F86A34
:10014000000EF8220800F5502E18D8B4AAEF80F05F
:10015000ACEF80F067EF80F0020E4264B2EF80F007
:10016000B4EF80F0E0EF80F0000E3E6E000E3F6EC8
:10017000800E406E7F0E416E2C502D10D8B4C3EF10
:1001800080F0C5EF80F0E4EF87F0080E4218D8B495
:10019000CCEF80F0CEEF80F0D0EF80F0030E426E17
:1001A00042502A242E6E000E2B202F6E2CC5D9F41F
:1001B0002DC5DAF42EC5DEF42FC5DDF4E4EF87F0AB
:1001C000426AE4EF80F0422A42502A24D96E000E9F
:1001D0002B20DA6EDF50D8B4F0EF80F0F2EF80F031
:1001E00028EF81F042502A24D96E000E2B20DA6EBF
:1001F000DF502E6EE80E4224F66EF76AFF0EF722ED
:10020000F86A000EF8220800F5502E18D8B40BEF4B
:1002100081F00DEF81F0E3EF80F042502A24D96E97
:10022000000E2B20DA6EDF502E6EE00E4224F66EAA
:10023000F76AFF0EF722F86A000EF8220800F55060
:100240002E18D8B426EF81F028EF81F0E3EF80F08C
:10025000030E4218D8A42FEF81F031EF81F09EEF0A
:1002600081F0EF0E056EFF0E066EA3ECC0F005C523
:100270003EF506C53FF507C540F508C541F52C50CC
:100280002D10D8B446EF81F048EF81F0E4EF87F00D
:1002900042502A26000E2B222AC5D9F42BC5DAF4A7
:1002A000280EDE18D8A457EF81F059EF81F094EFB3
:1002B00081F0426A5DEF81F0422A42502A24D96ED1
:1002C000000E2B20DA6EDF50D8B469EF81F06BEFAF
:1002D00081F07AEF81F042502A24D96E000E2B2053
:1002E000DA6E290EDE18D8A478EF81F07AEF81F06B
:1002F0005CEF81F042502A24D96E000E2B20DA6E7A
:10030000290EDE18D8A487EF81F089EF81F094EFF1
:1003100081F042502E6E2F6A010E2E26000E2F22E3
:100320002E502A262F502B222CC5D9F42DC5DAF4B5
:100330002AC5DEF42BC5DDF4E4EF87F03D6A000E3C
:100340003C6E000E3E6E000E3F6E000E406E000EC4
:10035000416E346A356A3B6A000E3A6E426AB2EF09
:1003600081F0422A42502A24D96E000E2B20DA6EE8
:10037000300EDE18D8B4BFEF81F0C1EF81F0B1EFDD
:1003800081F04250D8B4C7EF81F0C9EF81F061EF3E
:1003900085F042502A24D96E000E2B20DA6E780E9A
:1003A000DE18D8B4D6EF81F0D8EF81F0E7EF81F016
:1003B00042502A24D96E000E2B20DA6E580EDE1819
:1003C000D8A4E5EF81F0E7EF81F061EF85F04250CE
:1003D0002A242E6E000E2B202F6E010E2E24D96E95
:1003E000000E2F20DA6EDF50306E3050056E066A38
:1003F00082ECBDF005500610D8A401EF82F003EFA7
:1004000082F01AEF82F042502A242E6E000E2B202A
:100410002F6E010E2E24D96E000E2F20DA6E2E0EB6
:10042000DE18D8B416EF82F018EF82F01AEF82F0DF
:1004300087EF84F042C534F5422A42502A24D96E0F
:10044000000E2B20DA6E300EDE18D8B42AEF82F0C0
:100450002CEF82F01CEF82F042502A24D96E000E5D
:100460002B20DA6E700EDE18D8B439EF82F03BEF35
:1004700082F0A7EF83F042502A24D96E000E2B2081
:10048000DA6E500EDE18D8A448EF82F04AEF82F000
:100490004CEF82F0A7EF83F042502A24D96E000E71
:1004A0002B20DA6E2E0EDE18D8A459EF82F05BEF07
:1004B00082F061EF82F0398842C535F5422AA7EF14
:1004C00083F042502A24D96E000E2B20DA6EDF50C2
:1004D0002E6E2E50056E066A82ECBDF00550061099
:1004E000D8B475EF82F077EF82F087EF84F0386A46
:1004F00042502A24D96E000E2B20DA6EDF502E6E69
:100500002E50056E066A27ECC0F005500610D8B4D0
:100510008CEF82F08EEF82F099EF82F042502A2425
:10052000D96E000E2B20DA6EDF50D00F386EA9EF97
:1005300082F042502A24D96E000E2B20DA6EDF5052
:100540002E6E2E50056E066A10ECC0F00550C90FD5
:10055000386E3DBEB7EF82F03D5007E1080E3C5CBF
:10056000D8B0B5EF82F0B7EF82F0D6EF82F03C5012
:1005700007082E6ED8902E36D8902E3638C52FF517
:10058000306A316A326A2E2ACBEF82F0D8902F3649
:100590003036313632362E2EC6EF82F02F503E12D4
:1005A00030503F1231504012325041123C4A3D2AE5
:1005B000040E3A26000E3B22422A2CEF82F04250D3
:1005C0002A24D96E000E2B20DA6E300EDE18D8A445
:1005D000ECEF82F0EEEF82F0FDEF82F03C503D1048
:1005E000D8A4F5EF82F0F7EF82F0FDEF82F0FC0E79
:1005F0003A26FF0E3B22A6EF83F042502A24D96E02
:10060000000E2B20DA6EDF502E6E2E50056E066A1D
:1006100082ECBDF005500610D8B411EF83F013EF53
:1006200083F076EF83F0386A42502A24D96E000EA8
:100630002B20DA6EDF502E6E2E50056E066A27ECE8
:10064000C0F005500610D8B428EF83F02AEF83F0ED
:1006500035EF83F042502A24D96E000E2B20DA6E3B
:10066000DF50D00F386E45EF83F042502A24D96E08
:10067000000E2B20DA6EDF502E6E2E50056E066AAD
:1006800010ECC0F00550C90F386E3DBE53EF83F03B
:100690003D5007E1080E3C5CD8B051EF83F053EFBA
:1006A00083F072EF83F03C5007082E6ED8902E3600
:1006B000D8902E3638C52FF5306A316A326A2E2A24
:1006C00067EF83F0D8902F363036313632362E2E03
:1006D00062EF83F02F503E1230503F1231504012E3
:1006E000325041123C4A3D2AA6EF83F042502E6E12
:1006F0002F6A3550306E316A010E3026000E3122DD
:100700002E50301807E12F503118D8A48AEF83F00B
:100710008CEF83F0AEEF83F035502E6E2F6A34509D
:10072000306E316A010E3026000E31222E50301804
:1007300007E12F503118D8A4A0EF83F0A2EF83F087
:10074000AEEF83F034C542F587EF84F0422A39B822
:10075000ACEF83F0AEEF83F0DFEF82F042502A2659
:10076000000E2B22426A2AC5D9F42BC5DAF4700E8A
:10077000DE18D8B4BEEF83F0C0EF83F0CFEF83F084
:100780002AC5D9F42BC5DAF4500EDE18D8B4CBEF55
:1007900083F0CDEF83F0CFEF83F087EF84F0422A30
:1007A00020EE01F02A50D9262B50DA222B0EDE182B
:1007B000D8A4DDEF83F0DFEF83F0E2EF83F0422A8D
:1007C000F3EF83F020EE01F02A50D9262B50DA22E5
:1007D0002D0EDE18D8A4EFEF83F0F1EF83F0F3EFE6
:1007E00083F03986422A42502A24D96E000E2B20EB
:1007F000DA6EDF502E6E2E50056E066A27ECC0F0C2
:1008000005500610D8A407EF84F009EF84F00CEF30
:1008100084F0426A87EF84F042502A26000E2B2291
:10082000426A14EF84F0422A42502A24D96E000E04
:100830002B20DA6E300EDE18D8B421EF84F023EFCF
:1008400084F013EF84F03D6A000E3C6E50EF84F0AC
:100850004250D8B42EEF84F030EF84F03DEF84F0B6
:100860003CC505F53DC506F5086A0A0E076E90EC15
:10087000C0F005C53CF506C53DF542502A24D96EA9
:10088000000E2B20DA6EDF502E6ED00E2E242F6E2F
:10089000306AFF0E30222F503C2630503D22422A33
:1008A00042502A24D96E000E2B20DA6EDF502E6EB5
:1008B0002E50056E066A27ECC0F005500610D8A42D
:1008C00064EF84F066EF84F028EF84F04250D8A4FF
:1008D0006CEF84F06EEF84F078EF84F0000E2A6EF7
:1008E000000E2B6E000E2C6E000E2D6E1AEF88F08F
:1008F00039A67DEF84F07FEF84F083EF84F03C6CC9
:100900003D1ED8B03D2A3C503A263D503B222C504B
:100910002D10D8B48EEF84F090EF84F09EEF84F029
:1009200042502A242E6E000E2B202F6E2CC5D9F497
:100930002DC5DAF42EC5DEF42FC5DDF43E503F1090
:1009400040104110D8A4A7EF84F0A9EF84F0B3EFD2
:1009500084F0000E2A6E000E2B6E000E2C6E000E20
:100960002D6E1AEF88F0FF0E3E142E6E000E3F140F
:100970002F6E000E4014306E000E4114316E315057
:1009800030102F1009E1810E2E5CD8A0CAEF84F040
:10099000CCEF84F0DEEF84F0000E3E26010E3F2205
:1009A000000E4022000E4122DEEF84F0D8903E3649
:1009B0003F36403641363A06D8A03B0641AEE3EF1B
:1009C00084F0E5EF84F0D6EF84F03BAEF1EF84F0F5
:1009D000830E3A5CFF0E3B58D8B0F1EF84F0F3EF92
:1009E00084F0FFEF84F0FF0E3B6E810E3A6E000E36
:1009F0003E6E000E3F6E000E406E000E416E810E88
:100A00003A1808E13B28D8B408EF85F00AEF85F0E2
:100A100012EF85F0D8903E363F36403641363A06E2
:100A2000D8A03B063BBE1EEF85F03B5009E1800E8F
:100A30003A5CD8A01EEF85F020EF85F030EF85F00E
:100A4000000E3E6E000E3F6E000E406E000E416EB8
:100A50003B6A800E3A6E376A220E366EE4EF87F0FC
:100A6000090E2E6ED890413240323F323E322E2E49
:100A700032EF85F0FF0E3E16FF0E3F167F0E40163A
:100A8000000E41167F0E3A242E6E000E3B202F6E74
:100A9000FF0E2E14306E316A326A336A170ED89008
:100AA0003036313632363336E82E4FEF85F030505F
:100AB0003E1231503F123250401233504112E4EF97
:100AC00087F039B866EF85F068EF85F07AEF85F04A
:100AD0002AC5D9F42BC5DAF42E0EDE18D8A473EF8C
:100AE00085F075EF85F07AEF85F039882A4A2B2A50
:100AF00061EF85F02AC5D9F42BC5DAF4DF502E6EEC
:100B00002E50056E066A27ECC0F005500610D8A4DA
:100B10008CEF85F08EEF85F090EF85F0DEEF85F0BD
:100B20003982090E3C183D10D8B499EF85F09BEF3F
:100B300085F0D1EF85F039A8A0EF85F0A2EF85F020
:100B4000A5EF85F03A06D8A03B063C4A3D2A3EC5B3
:100B50000EF53FC50FF540C510F541C511F50A0E5C
:100B6000126E000E136E000E146E000E156E05EC64
:100B7000BCF00EC53EF50FC53FF510C540F511C5DB
:100B800041F52AC5D9F42BC5DAF4DF502E6ED00E0C
:100B90002E262E503E26000E3F2240224122DAEF22
:100BA00085F039B8D6EF85F0D8EF85F0DAEF85F02B
:100BB0003A4A3B2A2A4A2B2A61EF85F03D6A000E09
:100BC0003C6E2AC5D9F42BC5DAF4650EDE18D8B40C
:100BD000ECEF85F0EEEF85F0FBEF85F02AC5D9F458
:100BE0002BC5DAF4450EDE18D8A4F9EF85F0FBEF3B
:100BF00085F081EF86F02A4A2B2A2AC5D9F42BC525
:100C0000DAF42D0EDE18D8A408EF86F00AEF86F08D
:100C10000FEF86F039862A4A2B2A1EEF86F02AC566
:100C2000D9F42BC5DAF42B0EDE18D8A41AEF86F00F
:100C30001CEF86F01EEF86F02A4A2B2A2AC5D9F42B
:100C40002BC5DAF4300EDE18D8B429EF86F02BEF7E
:100C500086F01CEF86F0386A48EF86F02AC5D9F492
:100C60002BC5DAF4DF502E6ED00E2E260A0E3C0273
:100C7000F3C42FF5F4C430F53D02F35030262E5066
:100C80002F243C6E000E30203D6E2A4A2B2A382A33
:100C90002AC5D9F42BC5DAF4DF502E6E2E50056E1E
:100CA000066A27ECC0F005500610D8A45AEF86F06B
:100CB0005CEF86F02EEF86F03850D8A462EF86F015
:100CC00064EF86F076EF86F02FEEFFF32A50D926F8
:100CD0002B50DA22300EDE18D8B471EF86F073EFA5
:100CE00086F076EF86F02A06D8A02B0639A67BEF91
:100CF00086F07DEF86F081EF86F03C6C3D1ED8B02B
:100D00003D2A3C503A263D503B222C502D10D8B461
:100D10008CEF86F08EEF86F09DEF86F039A293EF90
:100D200086F095EF86F09DEF86F02CC5D9F42DC5A1
:100D3000DAF42AC5DEF42BC5DDF43EC505F53FC562
:100D400006F540C507F541C508F5000EF6ECA7F01D
:100D500005C53EF506C53FF507C540F508C541F593
:100D60003EC505F53FC506F540C507F541C508F583
:100D7000000E096E000E0A6E000E0B6E000E0C6E59
:100D8000C1ECB8F0D8A0C7EF86F0C9EF86F0D3EF7A
:100D900086F0000E2A6E000E2B6E000E2C6E000EDA
:100DA0002D6E1AEF88F03BBEDAEF86F0D8EF86F0B2
:100DB00068EF87F03A6C3B1ED8B03B2AFEEF86F016
:100DC0003EC505F53FC506F540C507F541C508F523
:100DD000F90E096E020E0A6E150E0B6E500E0C6E99
:100DE00043EC9CF005C53EF506C53FF507C540F54B
:100DF00008C541F5F60E3A26FF0E3B223BBE0CEF2E
:100E000087F03B5007E10A0E3A5CD8B00AEF87F052
:100E10000CEF87F0E0EF86F02BEF87F03EC505F58D
:100E20003FC506F540C507F541C508F5000E096E3A
:100E3000000E0A6E200E0B6E410E0C6E43EC9CF001
:100E400005C53EF506C53FF507C540F508C541F5A2
:100E50003A06D8A03B063A503B10D8A432EF87F0B0
:100E600034EF87F00EEF87F03EC51EF53FC51FF546
:100E700040C520F541C521F5000E226E000E236EFF
:100E8000800E246E000E256EA8ECB1F0D8B04BEFAA
:100E900087F04DEF87F0E4EF87F039A052EF87F04D
:100EA00054EF87F05EEF87F0000E2A6E000E2B6E77
:100EB000800E2C6E800E2D6E1AEF88F0000E2A6EBA
:100EC000000E2B6E800E2C6E000E2D6E1AEF88F029
:100ED0003BBE73EF87F03B5008E13A04D8A073EFB4
:100EE00087F075EF87F0E4EF87F095EF87F03EC568
:100EF00005F53FC506F540C507F541C508F5F90EEE
:100F0000096E020E0A6E150E0B6E500E0C6E56EC2C
:100F100098F005C53EF506C53FF507C540F508C57F
:100F200041F5F60E3A26FF0E3B223B5007E10A0E32
:100F30003A5CD8B09EEF87F0A0EF87F077EF87F0AC
:100F4000BFEF87F03EC505F53FC506F540C507F57F
:100F500041C508F5000E096E000E0A6E200E0B6EDC
:100F6000410E0C6E56EC98F005C53EF506C53FF5F2
:100F700007C540F508C541F53A06D8A03B063A50EA
:100F80003B10D8A4C6EF87F0C8EF87F0A2EF87F038
:100F9000FF0E1E6EFF0E1F6E7F0E206E7F0E216EE7
:100FA0003EC522F53FC523F540C524F541C525F5CD
:100FB000A8ECB1F0D8B0DFEF87F0E1EF87F0E4EF15
:100FC00087F0376A220E366E36503710D8B4EBEF02
:100FD00087F0EDEF87F0F9EF87F036C554F737C5A6
:100FE00055F7000E3E6E000E3F6E800E406E7F0E77
:100FF000416E39A0FEEF87F000EF88F012EF88F025
:101000003EC505F53FC506F540C507F541C508F5E0
:1010100072ECBFF005C53EF506C53FF507C540F5C6
:1010200008C541F53EC52AF53FC52BF540C52CF551
:1010300041C52DF512000501816B34C582F535C51A
:1010400083F536C584F537C585F585BF2CEF88F067
:101050002AEF88F040EF88F0010E816F82C505F518
:1010600083C506F584C507F585C508F572ECBFF0A4
:1010700005C582F506C583F507C584F508C585F560
:101080000501876B000E866F3EC675F53FC676F587
:101090008151D8B44EEF88F050EF88F062EF88F0BD
:1010A0008151D8A456EF88F058EF88F05DEF88F0B2
:1010B000676B2B0E666F60EF88F0676B2D0E666FA7
:1010C00066C581F582C505F583C506F584C507F5B6
:1010D00085C508F5A7ECB2F005040610D8A473EF97
:1010E00088F075EF88F0ABEF88F005018151D8B436
:1010F0007CEF88F07EEF88F086EF88F081C556F7A8
:101100007507D8A07607876B010E866F560E862569
:10111000056E070E8721066EE40E076EFF0E086E41
:101120001AECBFF00501FD0E7527FF0E762332C5C0
:1011300017F533C518F5560E196E070E1A6E75C5DC
:101140001BF576C51CF569ECB8F017C532F518C566
:1011500033F544EF8DF082C505F583C506F584C5EA
:1011600007F585C508F5A7ECB2F005500610D8A420
:10117000BCEF88F0BEEF88F0DDEF88F0050181510B
:10118000D8B4C5EF88F0C7EF88F0CFEF88F081C5FD
:1011900056F77507D8A07607876B010E866F560E37
:1011A0008625056E070E8721066EE80E076EFF0E78
:1011B000086E1AECBFF092EF88F0000E0501886F00
:1011C000000E896F800E8A6F3F0E8B6F706B000E62
:1011D0006F6F82C505F583C506F584C507F585C51E
:1011E00008F5000E096E000E0A6E000E0B6E000E62
:1011F0000C6EC1ECB8F0D8B000EF89F002EF89F0C6
:10120000E1EF89F00FEF89F071C588F572C589F5B6
:1012100073C58AF574C58BF505016F4B702B88C5B6
:1012200005F589C506F58AC507F58BC508F5000ED5
:10123000096E000E0A6E200E0B6E410E0C6E56ECFF
:1012400098F005C571F506C572F507C573F508C5B3
:1012500074F505017151825D056E72518359066EF8
:1012600073518459076E74518559086E57ECBDF05F
:1012700008BE46EF89F008500710061009E1020E7B
:10128000055CD8A046EF89F048EF89F004EF89F0BB
:1012900071C51EF572C51FF573C520F574C521F51E
:1012A00082C522F583C523F584C524F585C525F5BA
:1012B000A8ECB1F0D8A05FEF89F061EF89F004EFFE
:1012C00089F005018851825D056E89518359066E4A
:1012D0008A518459076E8B518559086E57ECBDF0C1
:1012E00008BE80EF89F008500710061007E1020ED3
:1012F000055CD8B07EEF89F080EF89F0C8EF89F007
:1013000088C582F589C583F58AC584F58BC585F5C1
:10131000E1EF89F088C505F589C506F58AC507F5A9
:101320008BC508F5000E096E000E0A6E200E0B6EBE
:10133000410E0C6E43EC9CF005C588F506C589F599
:1013400007C58AF508C58BF505016F07D8A070079A
:101350008851825D056E89518359066E8A51845980
:10136000076E8B518559086E57ECBDF008BEC6EF6D
:1013700089F008500710061007E1020E055CD8B08E
:10138000C4EF89F0C6EF89F0C8EF89F080EF89F0EB
:1013900082C51EF583C51FF584C520F585C521F5D9
:1013A00088C522F589C523F58AC524F58BC525F5A1
:1013B000A8ECB1F0D8A0DFEF89F0E1EF89F08AEF77
:1013C00089F038C569F569C56AF50501FCBFEBEF21
:1013D00089F0EDEF89F0F3EF89F0FBC562F5FCC50C
:1013E00063F5F6EF89F0636B060E626F62C56DF50B
:1013F00063C56EF56D4B6E2B660E6A19D8A403EFAC
:101400008AF005EF8AF024EF8AF070BF0CEF8AF0C3
:101410000AEF8AF017EF8AF0000E886F000E896FCE
:10142000800E8A6F3F0E8B6F706B000E6F6F670EB2
:101430006919D8B41EEF8AF020EF8AF024EF8AF001
:101440006F516D2770516E23806B000E7F6F82C5C8
:1014500077F583C578F584C579F585C57AF588C5AE
:1014600071F589C572F58AC573F58BC574F5B4EF4E
:101470008AF077C505F578C506F579C507F57AC50B
:1014800008F588C509F589C50AF58AC50BF58BC528
:101490000CF543EC9CF005C51EF506C51FF507C508
:1014A00020F508C521F5FCECA4F01EC57BF51FC591
:1014B0007CF520C57DF521C57EF57BC505F57CC590
:1014C00006F57DC507F57EC508F525ECB1F005C527
:1014D0006BF506C56CF577C51EF578C51FF579C5A2
:1014E00020F57AC521F57BC509F57CC50AF57DC5D2
:1014F0000BF57EC50CF588C505F589C506F58AC5C9
:1015000007F58BC508F556EC98F005C522F506C51C
:1015100023F507C524F508C525F596ECBEF01EC5D4
:1015200077F51FC578F520C579F521C57AF588C509
:1015300005F589C506F58AC507F58BC508F5000EC2
:10154000096E000E0A6E200E0B6E410E0C6E43ECFF
:101550009CF005C588F506C589F507C58AF508C557
:101560008BF505017F4B802B6D517F5D8051800A8B
:10157000396E6E51800A3958D8A0C1EF8AF0C3EF96
:101580008AF039EF8AF088C505F589C506F58AC560
:1015900007F58BC508F5000E096E000E0A6EA00E49
:1015A0000B6E400E0C6E56EC98F005C57BF506C52B
:1015B0007CF507C57DF508C57EF577C51EF578C5B0
:1015C0001FF579C520F57AC521F57BC522F57CC5C7
:1015D00023F57DC524F57EC525F5A8ECB1F0D8B07E
:1015E000F4EF8AF0F6EF8AF001EF8BF0000E0501C0
:1015F0007B6F000E7C6F000E7D6F000E7E6F2AEFFA
:101600008BF077C505F578C506F579C507F57AC578
:1016100008F57BC509F57CC50AF57DC50BF57EC5CA
:101620000CF5C1ECB8F0D8A018EF8BF01AEF8BF0E6
:101630002AEF8BF005016BB120EF8BF022EF8BF0DE
:101640002AEF8BF0000E7B6F000E7C6F000E7D6F1B
:10165000000E7E6F82C505F583C506F584C507F5C6
:1016600085C508F57BC509F57CC50AF57DC50BF573
:101670007EC50CF5B2EC93F005C577F506C578F597
:1016800007C579F508C57AF577C51EF578C51FF544
:1016900079C520F57AC521F5000E096E000E0A6E97
:1016A000200E0B6E410E0C6E71C505F572C506F568
:1016B00073C507F574C508F556EC98F005C522F515
:1016C00006C523F507C524F508C525F5A8ECB1F036
:1016D000D8A06DEF8BF06FEF8BF098EF8BF00501DA
:1016E0006F4B702B71C505F572C506F573C507F50F
:1016F00074C508F5000E096E000E0A6E200E0B6E02
:10170000410E0C6E56EC98F005C571F506C572F5E4
:1017100007C573F508C574F5660E05016A19D8A4E6
:1017200094EF8BF096EF8BF098EF8BF06D4B6E2B68
:1017300071C588F572C589F573C58AF574C58BF5D1
:101740006FC560F570C561F50501686B656B000ECE
:10175000646F806B000E7F6F92EF8CF077C505F59C
:1017600078C506F579C507F57AC508F588C509F580
:1017700089C50AF58AC50BF58BC50CF543EC9CF0C1
:1017800005C51EF506C51FF507C520F508C521F5D9
:10179000FCECA4F01EC57BF51FC57CF520C57DF5CE
:1017A00021C57EF57BC505F57CC506F57DC507F52C
:1017B0007EC508F525ECB1F006BEEAEF8BF00650C9
:1017C00007E10A0E055CD8B0E8EF8BF0EAEF8BF08A
:1017D000FAEF8BF07BC505F57CC506F57DC507F5F1
:1017E0007EC508F525ECB1F005C56BF506C56CF5B1
:1017F000FEEF8BF005016C6B090E6B6F05016851F4
:10180000D8A405EF8CF007EF8CF02FEF8CF061BFC0
:101810000EEF8CF00CEF8CF02FEF8CF0560E86252F
:10182000D96E070E8721DA6E2E0EDF6E864B872B60
:101830007507D8A07607010E686F2FEF8CF0560E53
:101840008625D96E070E8721DA6E300EDF6E864B45
:10185000872B7507D8A076076407D8A06507645161
:101860006511D8A436EF8CF038EF8CF01FEF8CF0B8
:10187000560E8625D96E070E8721DA6E6B51300F12
:10188000DF6E864B872B7507D8A0760777C51EF5C8
:1018900078C51FF579C520F57AC521F57BC509F511
:1018A0007CC50AF57DC50BF57EC50CF588C505F52B
:1018B00089C506F58AC507F58BC508F556EC98F07D
:1018C00005C522F506C523F507C524F508C525F588
:1018D00096ECBEF01EC577F51FC578F520C579F5E5
:1018E00021C57AF588C505F589C506F58AC507F5C8
:1018F0008BC508F5000E096E000E0A6E200E0B6EE9
:10190000410E0C6E43EC9CF005C588F506C589F5C3
:1019100007C58AF508C58BF505016007D8A06107E2
:101920007F4B802B6D517F5D8051800A396E6E51E7
:10193000800A3958D8B09FEF8CF0A1EF8CF0AFEF50
:101940008CF087BFADEF8CF0875109E14B0E865DBF
:10195000D8A0ADEF8CF0AFEF8CF0AEEF8BF0806BDA
:101960004F0E7F6F560E7F25D96E070E8021DA6EDF
:10197000DF6A560E396E070E3A6E8651395E875110
:101980003A5A7F513924056E80513A20066E560E20
:10199000076E070E086E86C509F587C50AF5FCECCB
:1019A000BDF0050186517F5D866F87518059876F35
:1019B0008151D8A4DEEF8CF0E1EF8CF0010EE2EF64
:1019C0008CF0000E7F6F806B58A2E9EF8CF0EBEF8C
:1019D0008CF019EF8DF0FBEF8CF08607D8A087070D
:1019E000560E8625D96E070E8721DA6E300EDF6E11
:1019F0007507D8A0760775517F5D8051800A396ED2
:101A00007651800A3958D8B008EF8DF00AEF8DF082
:101A100019EF8DF086517F5D8051800A396E8751B4
:101A2000800A3958D8A017EF8DF019EF8DF0EDEF3F
:101A30008CF08151D8B41FEF8DF021EF8DF02CEF99
:101A40008DF08607D8A08707560E8625D96E070E1B
:101A50008721DA6E81C5DFF47F51755F8051765B37
:101A600032C517F533C518F5560E8625196E070EC3
:101A700087211A6E75C51BF576C51CF569ECB8F0A3
:101A800017C532F518C533F512008EC5D9F48FC5C8
:101A9000DAF4DEC4F6F4DDC4F7F4000EF86E0800E4
:101AA000F550250AD8A457EF8DF059EF8DF0DDEFF2
:101AB00090F08EC5D9F48FC5DAF4DE2A000EDD224F
:101AC00006013F6B000E3E6F3EC658F50501FB69EF
:101AD000FC693F6A8CEF8DF058828EC5D9F48FC5B2
:101AE000DAF4DE2A000EDD228CEF8DF0010E3F6E5F
:101AF0008CEF8DF08EC5D9F48FC5DAF4DEC4F6F420
:101B0000DDC4F7F4000EF86E0800F550300AD8B4C2
:101B10006CEF8DF076EF8DF03F50D8B492EF8DF0F2
:101B200094EF8DF07AEF8DF08EC505F58FC506F533
:101B300090C507F591C508F5B6ECB5F005C53EF6BC
:101B400006C53FF606013FBFAAEF8DF0A8EF8DF066
:101B5000AFEF8DF058803E6D3F1FD8B03F2B8EC544
:101B6000D9F48FC5DAF4DEC4F6F4DDC4F7F4000E60
:101B7000F86E0800F5502E0AD8A4C1EF8DF0C3EF1F
:101B80008DF0D8EF8DF08EC5D9F48FC5DAF4DE2A4A
:101B9000000EDD228EC505F58FC506F590C507F54B
:101BA00091C508F5B6ECB5F005C5FBF506C5FCF525
:101BB0008EC5D9F48FC5DAF4DEC4F6F4DDC4F7F4CB
:101BC000000EF86E0800F550630AD8A4EAEF8DF015
:101BD000ECEF8DF013EF8EF08EC5D9F48FC5DAF4EB
:101BE000DE2A000EDD2290C5D9F491C5DAF4DFC4F7
:101BF0003BF5020EDE26DFC43CF5000EDD223BC5C0
:101C0000D9F43CC5DAF4DF50446E8CC510F58DC5AF
:101C100011F544C512F54EECB5F010C58CF511C5A3
:101C20008DF5FCEF90F08EC5D9F48FC5DAF4DEC4E3
:101C300045F5DDC446F545C5F6F446C5F7F4000E96
:101C4000F86E0800F5C444F531EF8EF0454A462A97
:101C500048EF8EF0690E446E48EF8EF0446A48EF0C
:101C60008EF04450580AD8B42AEF8EF03C0AD8B40B
:101C70002AEF8EF00D0AD8B42AEF8EF0050AD8B4F8
:101C800026EF8EF0190AD8B42AEF8EF02EEF8EF0E0
:101C900045C5F6F446C5F7F4000EF86E0800F55099
:101CA000640AD8B456EF8EF058EF8EF09FEF8EF0A6
:101CB00045C5F6F446C5F7F4000EF86E0800F55079
:101CC000690AD8A466EF8EF068EF8EF0CCEF8EF044
:101CD0009FEF8EF090C5D9F491C5DAF4DFC43BF5DF
:101CE000020EDE26DFC43CF5000EDD223BC5D9F432
:101CF0003CC5DAF4DEC440F5DDC441F5000E41BE5A
:101D0000FF0E426E436EAAEF8EF090C5D9F491C5D6
:101D1000DAF4DFC43BF5040EDE26DFC43CF5000E2A
:101D2000DD223BC5D9F43CC5DAF4DEC440F5DEC49F
:101D300041F5DEC442F5DEC443F5AAEF8EF044500F
:101D4000690AD8B46AEF8EF0050AD8B485EF8EF030
:101D5000AAEF8EF0010E45243B6E000E46203C6E2D
:101D60008EC5D9F48FC5DAF43BC5DEF43CC5DDF48D
:101D70008CC520F58DC521F540C522F541C523F55B
:101D800042C524F543C525F506ECA7F020C58CF522
:101D900021C58DF5FCEF90F045C5F6F446C5F7F486
:101DA000000EF86E0800F550580AD8B4DAEF8EF03D
:101DB000DCEF8EF024EF8FF045C5F6F446C5F7F45E
:101DC000000EF86E0800F550750AD8A4EAEF8EF000
:101DD000ECEF8EF079EF8FF024EF8FF090C5D9F40F
:101DE00091C5DAF4DFC43BF5020EDE26DFC43CF514
:101DF000000EDD223BC5D9F43CC5DAF4DEC43DF566
:101E0000DDC43EF53DC540F53EC541F5426A436A35
:101E10002FEF8FF090C5D9F491C5DAF4DFC43BF50C
:101E2000040EDE26DFC43CF5000EDD223BC5D9F4EE
:101E30003CC5DAF4DEC440F5DEC441F5DEC442F54B
:101E4000DEC443F52FEF8FF04450690AD8B4EEEFAB
:101E50008EF0050AD8B40AEF8FF02FEF8FF0010E45
:101E600045243B6E000E46203C6E8EC5D9F48FC5CE
:101E7000DAF43BC5DEF43CC5DDF467EF8FF08CC5CA
:101E800027F58DC528F540C529F541C52AF542C578
:101E90002BF543C52CF5A1ECACF027C58CF528C576
:101EA0008DF5FCEF90F08CC520F58DC521F540C572
:101EB00022F541C523F542C524F543C525F5F1ECCE
:101EC000ABF020C58CF521C58DF5FCEF90F045C534
:101ED000F6F446C5F7F4000EF86E0800F550580AFF
:101EE000D8B453EF8FF02D0AD8B43FEF8FF079EFCD
:101EF0008FF03F6A8EC5D9F48FC5DAF4DEC4F6F4EC
:101F0000DDC4F7F4000EF86E0800F550730AD8A48B
:101F10008CEF8FF08EEF8FF099EF8FF08EC5D9F4A4
:101F20008FC5DAF4DE2A000EDD22010E3F6EEFEFE0
:101F30008FF08EC5D9F48FC5DAF4DEC4F6F4DDC4B3
:101F4000F7F4000EF86E0800F5506C0AD8A4ABEF59
:101F50008FF0ADEF8FF0EFEF8FF08EC5D9F48FC516
:101F6000DAF4DEC43BF5DDC43CF5010E3B26000E81
:101F70003C223BC5F6F43CC5F7F4000EF86E0800B1
:101F8000F5506C0AD8A4C7EF8FF0C9EF8FF0EFEFD0
:101F90008FF08EC5D9F48FC5DAF4DEC43BF5DDC40D
:101FA0003CF5020E3B26000E3C223BC5F6F43CC538
:101FB000F7F4000EF86E0800F550730AD8A4E3EFAA
:101FC0008FF0E5EF8FF0EFEF8FF0030E8EC5D9F4B1
:101FD0008FC5DAF4DE26000EDD2295EF8FF03F503C
:101FE000D8B4F5EF8FF0F7EF8FF017EF90F08CC5C6
:101FF00010F58DC511F590C5D9F491C5DAF4DFC49B
:102000003BF5020EDE26DFC43CF5000EDD223BC5AB
:10201000D9F43CC5DAF4DEC412F5DDC413F5A1EC45
:10202000A9F010C58CF511C58DF5FCEF90F08EC5AB
:10203000D9F48FC5DAF4DEC445F5DDC446F545C5EF
:10204000F6F446C5F7F4000EF86E0800F5C444F542
:1020500035EF90F0454A462A44EF90F06C0E446EFE
:1020600044EF90F0446A44EF90F044504C0AD8B4E6
:102070002AEF90F02A0AD8B42EEF90F00A0AD8B4CA
:102080002AEF90F032EF90F045C5F6F446C5F7F42C
:10209000000EF86E0800F550660AD8A452EF90F0D2
:1020A00054EF90F0D0EF90F08AEF90F090C5D9F413
:1020B00091C5DAF4DFC43BF5040EDE26DFC43CF53F
:1020C000000EDD223BC5D9F43CC5DAF4DEC440F590
:1020D000DEC441F5DEC442F5DEC443F595EF90F071
:1020E00090C5D9F491C5DAF4DFC43BF5040EDE26C1
:1020F000DFC43CF5000EDD223BC5D9F43CC5DAF463
:10210000DEC440F5DEC441F5DEC442F5DEC443F56D
:1021100095EF90F044504C0AD8B470EF90F0200A3C
:10212000D8B456EF90F095EF90F0010E45243B6E39
:10213000000E46203C6E8EC5D9F48FC5DAF43BC53F
:10214000DEF43CC5DDF4C2EF90F08CC532F58DC5F0
:1021500033F540C534F541C535F542C536F543C5BF
:1021600037F545C5F6F446C5F7F4000EF86E0800DD
:10217000F5C438F51BEC88F032C58CF533C58DF508
:10218000FCEF90F045C5F6F446C5F7F4000EF86E86
:102190000800F550660AD8B4A5EF90F0D0EF90F0A3
:1021A0008EC5D9F48FC5DAF4DE2A000EDD220501D2
:1021B0008D6B000E8C6FFCEF90F08EC5D9F48FC53F
:1021C000DAF4DEC4F6F4DDC4F7F4000EF86E0800AD
:1021D000F550076E086A8CC509F58DC50AF51BEC2C
:1021E000B6F08EC5D9F48FC5DAF4DE2A000EDD22F2
:1021F00005018D6B010E8C6F1200D0ECA8F05AEF28
:1022000093F08EECBFF007013C51055C0501B76F00
:1022100007013D5106580501B86F07013E510758A7
:102220000501B96F07013F5108580501BA6FBA514E
:10223000B9110BE1880EB75D130EB859D8A023EF82
:1022400091F025EF91F0B1EF93F0C08E8EECBFF0DE
:1022500005C538F706C539F707C53AF708C53BF78E
:10226000010E06015B6FB1EF93F006015651D8A441
:102270003CEF91F03EEF91F068EF91F08EECBFF003
:1022800007013851055C0501B76F07013951065840
:102290000501B86F07013A5107580501B96F0701E9
:1022A0003B5108580501BA6FBA51B911B81107E18D
:1022B000640EB75DD8B05FEF91F061EF91F063EF1E
:1022C00091F0B1EF93F008ECC1F0010E0601566FEA
:1022D0005951D8A46EEF91F070EF91F08BEF91F01F
:1022E000F80E166EFF0E176E7A0E186EFF0E196E30
:1022F000000E1A6E000E1B6EE80E1C6E030E1D6E95
:10230000000E1E6E000E1F6EFBECBEF0010E0601ED
:10231000596FB1EF93F043ECBAF00501BB6FBB0509
:10232000D8A495EF91F097EF91F09DEF91F0060111
:10233000596B020E5B6FB1EF93F0BB51D8B4A3EFB2
:1023400091F0A5EF91F0B1EF93F00601596BB1EF69
:1023500093F0DB0EA66FFF0EA76F7A0EA86FFF0E2D
:10236000A96FCA0EAA6FFF0EAB6FD00EAC6F070E2F
:10237000AD6F000EAE6F000EAF6F030EB06F020EAA
:10238000B16F68ECB9F0B1EF93F0500EA66FFE0E8E
:10239000A76FD00EA86F070EA96F000EAA6F000ED0
:1023A000AB6F040EAC6F89ECBAF0B1EF93F06E0E28
:1023B000A66FFE0EA76FD00EA86F070EA96F000EB6
:1023C000AA6F000EAB6F050EAC6F89ECBAF0B1EFDF
:1023D00093F0520EA66FFF0EA76FD00EA86FFF0EE0
:1023E000A96FCA0EAA6FFF0EAB6F880EAC6F130EEB
:1023F000AD6F000EAE6F000EAF6F060EB06F050E24
:10240000B16F68ECB9F0B1EF93F0820EA66FFD0EDC
:10241000A76FD00EA86F070EA96F000EAA6F000E4F
:10242000AB6F070EAC6F89ECBAF0B1EF93F0B30E5F
:10243000A66FFD0EA76FD00EA86F070EA96F000E36
:10244000AA6F000EAB6F080EAC6F89ECBAF0B1EF5B
:1024500093F0D10EA66FFE0EA76FD00EA86F070ED9
:10246000A96F000EAA6F000EAB6F090EAC6F89EC5E
:10247000BAF0B1EF93F0AE0EA66FFE0EA76FD00EBE
:10248000A86F070EA96F000EAA6F000EAB6F0A0EA1
:10249000AC6F89ECBAF0B1EF93F01A0EA66FFF0E95
:1024A000A76F7A0EA86FFF0EA96FCA0EAA6FFF0E54
:1024B000AB6F980EAC6F3A0EAD6F000EAE6F000EA4
:1024C000AF6F0B0EB06F0A0EB16F68ECB9F0B1EFE1
:1024D00093F0240EA66FFF0EA76F100EA86FFF0ECD
:1024E000A96F000EAA6F000EAB6FD00EAC6F070E77
:1024F000AD6F000EAE6F000EAF6F0C0EB06F0B0E17
:10250000B16F68ECB9F0B1EF93F006015951D8A45E
:102510008CEF92F08EEF92F09DEF92F0780E050125
:10252000986F080E996F000E9A6FFD0E9B6F640EE8
:102530009C6FFF0E9D6F24ECBEF0780E0501A66F18
:10254000080EA76F7A0EA86FFF0EA96FCA0EAA6FAA
:10255000FF0EAB6F880EAC6F130EAD6F000EAE6F3B
:10256000000EAF6F0D0EB06F0C0EB16F68ECB9F0CE
:10257000B1EF93F0DC0EA66FFE0EA76F7A0EA86F78
:10258000FF0EA96FCA0EAA6FFF0EAB6FF00EAC6FF5
:10259000490EAD6F020EAE6F000EAF6F0E0EB06F34
:1025A0000C0EB16F68ECB9F0B1EF93F0890EA66F25
:1025B000FE0EA76F100EA86F270EA96F000EAA6F50
:1025C000000EAB6F0F0EAC6F89ECBAF0B1EF93F069
:1025D00006015951D8A4EFEF92F0F1EF92F004EF19
:1025E00093F0780E0501986F080E996FE00E9A6FC0
:1025F000FC0E9B6FBA0E9C6FFE0E9D6FE60E9F6FDA
:10260000F80E9E6F24ECBEF0780E0501A66F080E42
:10261000A76F7C0EA86FFE0EA96FCA0EAA6FFF0EE1
:10262000AB6FF00EAC6F490EAD6F020EAE6F000EC9
:10263000AF6F100EB06F0D0EB16F68ECB9F0100EE9
:1026400006015B19D8A427EF93F029EF93F0B1EFBF
:1026500093F05A6BE50E0501986FFB0E996F7CECB9
:10266000C0F0B1EF93F0C6ECA2F0B1EF93F08EECB6
:10267000BFF007014051055C0501B76F07014151EB
:1026800006580501B86F0701425107580501B96F97
:102690000701435108580501BA6F800EBA5DD8B0E2
:1026A00054EF93F056EF93F0B1EF93F058C65BF60A
:1026B000B1EF93F006015B510501B76FB86BB851EC
:1026C000000AD8B466EF93F0B1EF93F0B751000A67
:1026D000D8B401EF91F0010AD8B435EF91F0030AB4
:1026E000D8B4A9EF91F0010AD8B4C5EF91F0070A68
:1026F000D8B4D7EF91F0010AD8B4E9EF91F0030A0A
:10270000D8B405EF92F0010AD8B417EF92F00F0A8F
:10271000D8B429EF92F0010AD8B43BEF92F0030A43
:10272000D8B44DEF92F0010AD8B469EF92F0070ADD
:10273000D8B485EF92F0010AD8B4BAEF92F0030A48
:10274000D8B4D6EF92F0010AD8B4E8EF92F01F0A9D
:10275000D8B433EF93F0010AD8B437EF93F0B1EF68
:1027600093F012000850800B116E08500824136E6D
:1027700007AEBDEF93F0BFEF93F0C0EF93F013807F
:102780001350D8B4C6EF93F0C8EF93F0DCEF93F09A
:102790001328D8A4CEEF93F0D0EF93F0D8EF93F0B6
:1027A000000E056E000E066E000E076E000E086E1F
:1027B000078E086AE4EF93F0000E056E000E066EB9
:1027C000000E076E000E086E0C50800B126E11503A
:1027D0001218D8B4EEEF93F0F0EF93F0F1EF93F01E
:1027E000118C0C500C24126E0BAEF9EF93F0FBEF32
:1027F00093F0FCEF93F012801250D8B402EF94F0F3
:1028000004EF94F018EF94F01228D8A40AEF94F093
:102810000CEF94F014EF94F0000E096E000E0A6EA7
:10282000000E0B6E000E0C6E0B8E0C6A20EF94F0F7
:10283000000E096E000E0A6E000E0B6E000E0C6E7E
:102840001350125CD8B027EF94F029EF94F050EFBA
:1028500094F011AC2EEF94F030EF94F032EF94F04E
:10286000800E111A13C514F512C513F514C512F50F
:1028700005C514F509C505F514C509F506C514F512
:102880000AC506F514C50AF507C514F50BC507F505
:1028900014C50BF508C514F50CC508F514C50CF5E1
:1028A000146A135012C50DF50E6A0D5E000E0E5A15
:1028B0000EBE64EF94F00E5009E11A0E0D5CD8A024
:1028C00064EF94F066EF94F09DEF94F005500610DD
:1028D00007100810D8A46FEF94F072EF94F0010E77
:1028E00073EF94F0000E146E000E056E000E066E6F
:1028F000000E076E000E086E12C513F5A6EF94F0D9
:1029000014A085EF94F087EF94F08DEF94F0D890B9
:1029100014300109146E8FEF94F0D890143205A092
:1029200094EF94F096EF94F097EF94F0148E0834AF
:102930000832073206320532132A1250135CD8A02F
:10294000A4EF94F0A6EF94F080EF94F011BCABEFFD
:1029500094F0ADEF94F0EDEF94F01350D8A4B3EFF2
:1029600094F0B5EF94F0BFEF94F0000E056E000EFA
:10297000066E000E076E000E086E0CEF96F0095002
:1029800005260A5006220B5007220C50082208A0E8
:10299000CCEF94F0CEEF94F07AEF95F014A0D3EF53
:1029A00094F0D5EF94F0DBEF94F0D8901430010957
:1029B000146EDDEF94F0D890143205A0E2EF94F09D
:1029C000E4EF94F0E5EF94F0148E08340832073207
:1029D00006320532132A7AEF95F00950055C0A5049
:1029E00006580B5007580850800A0D6E0C50800A8C
:1029F0000D58D8B0FEEF94F000EF95F02BEF95F066
:102A00000550095C0D6E06500A580E6E07500B58A3
:102A10000F6E08500C58106EFF0E0D24056EFF0E41
:102A20000E20066EFF0E0F20076EFF0E1020086EA0
:102A3000800E111A146C1450D8A421EF95F023EFD6
:102A400095F033EF95F0010E0526000E06220722C1
:102A5000082233EF95F00950055E0A50065A0B50D4
:102A6000075A0C50085A0550061007100810D8A431
:102A70003CEF95F03EEF95F073EF95F01450D8A42D
:102A800044EF95F046EF95F073EF95F0000E056E6C
:102A9000000E066E000E076E000E086E0CEF96F02C
:102AA000D890053606360736083614AE5AEF95F03C
:102AB0005CEF95F05DEF95F0058014A062EF95F066
:102AC00064EF95F068EF95F0D88014366AEF95F0D2
:102AD000D89014361350D8B470EF95F072EF95F08B
:102AE00073EF95F0130607AE78EF95F07AEF95F057
:102AF00050EF95F0126A14AE80EF95F082EF95F0EA
:102B00009AEF95F014C50DF57F0E0D16D8B48BEF26
:102B100095F08DEF95F091EF95F0010E126E9AEF12
:102B200095F005A096EF95F098EF95F09AEF95F057
:102B30008DEF95F01250D8B4A0EF95F0A2EF95F07C
:102B4000CDEF95F0010E0526000E06220722082281
:102B500008A0ADEF95F0AFEF95F0CDEF95F005C57E
:102B60000DF506C50EF507C50FF508C510F51034AF
:102B700010320F320E320D320DC505F50EC506F5B9
:102B80000FC507F510C508F51328D8B4CAEF95F09E
:102B9000CCEF95F0CDEF95F0132A1328D8B4D3EFEE
:102BA00095F0D5EF95F0DDEF95F01350D8A4DBEF5D
:102BB00095F0DDEF95F0EEEF95F0000E056E000E4E
:102BC000066E000E076E000E086E1350D8A4EBEFD1
:102BD00095F0EDEF95F0EEEF95F0116A13A0F3EF9D
:102BE00095F0F5EF95F0F8EF95F0078EF9EF95F089
:102BF000079ED8901330086E11AE01EF96F003EFE8
:102C000096F004EF96F0088E05C505F506C506F5A5
:102C100007C507F508C508F51200306A000E316EC9
:102C2000000E326E000E336E000E346E1AC535F58E
:102C30001BC536F51FBE28EF96F01F5007E1250E85
:102C40001E5CD8B026EF96F028EF96F031EF96F0A4
:102C50001E041F10D8A42FEF96F031EF96F037EF37
:102C600096F00701556B160E546F31EF98F0355002
:102C70003610D8B43EEF96F040EF96F031EF98F072
:102C800035C5D9F436C5DAF4DF50D8A44AEF96F04A
:102C90004CEF96F04EEF96F031EF98F035C5D9F441
:102CA00036C5DAF4DF50376E5EEF96F0354A362AD5
:102CB00035C5D9F436C5DAF4DF50376E200E371833
:102CC000D8B465EF96F067EF96F056EF96F037C5FB
:102CD00021F5F70E2126040E216471EF96F073EFB3
:102CE00096F056EF96F02D0E3718D8A47AEF96F09E
:102CF0007CEF96F088EF96F0010E306E354A362A5A
:102D000035C5D9F436C5DAF4DF50376E93EF96F057
:102D10002B0E3718D8A48FEF96F091EF96F093EF23
:102D200096F07EEF96F0300E3718D8A49AEF96F012
:102D30009CEF96F033EF97F0354A362A35C5D9F433
:102D400036C5DAF4DF50376E1E501F10D8B4ABEF23
:102D500096F0ADEF96F0B7EF96F0100E1E181F101C
:102D6000D8A4B5EF96F0B7EF96F026EF97F0780E6F
:102D70003718D8B4BEEF96F0C0EF96F0C9EF96F0D2
:102D8000580E3718D8A4C7EF96F0C9EF96F026EF83
:102D900097F01F6A100E1E6E354A362A35C5D9F4D3
:102DA00036C5DAF4DF50376E37C521F5200E211213
:102DB0009F0E21261A0E2160E0EF96F0E2EF96F0CA
:102DC00006EF97F037C521F59F0E2126190E2164D5
:102DD000ECEF96F0EEEF96F0F3EF96F037C528F5AE
:102DE000296AFAEF96F037C521F55F0E21162150BA
:102DF000286E296A28C521F5C90E2126100E2160EA
:102E000004EF97F006EF97F020EF97F037C521F524
:102E1000200E21129F0E2126190E216412EF97F029
:102E200014EF97F033EF97F037C521F5D00E212638
:102E3000090E21641EEF97F020EF97F033EF97F023
:102E400030843506D8A0360631EF98F030841E5015
:102E50001F10D8A42EEF97F030EF97F033EF97F0D4
:102E60001F6A080E1E6E1E501F10D8A43AEF97F06E
:102E70003CEF97F03FEF97F01F6A0A0E1E6E20504E
:102E8000D8B445EF97F047EF97F062EF97F030B086
:102E90004CEF97F04EEF97F058EF97F0FF0E2C6E37
:102EA000FF0E2D6EFF0E2E6E7F0E2F6E66EF97F0CB
:102EB000000E2C6E000E2D6E000E2E6E800E2F6EEC
:102EC00066EF97F02C682D682E682F6831C524F5C1
:102ED00032C525F533C526F534C527F537C521F5A7
:102EE000200E21129F0E21261A0E21607AEF97F0F4
:102EF0007CEF97F099EF97F037C521F59F0E2126CB
:102F0000190E216486EF97F088EF97F08DEF97F018
:102F100037C52AF52B6A94EF97F037C521F55F0E78
:102F2000211621502A6E2B6A2A50C90F376EA7EF3F
:102F300097F037C521F5D00E21260A0E2160A3EFA8
:102F400097F0A5EF97F01FEF98F0300E375E3750EF
:102F5000216E226A1E50215C2250800A236E1F506F
:102F6000800A2358D8A0B7EF97F0B9EF97F0BBEFDE
:102F700097F01FEF98F030B2C0EF97F0C2EF97F0E4
:102F800014EF98F01EC50EF51FC50FF5000E0FBE0D
:102F9000FF0E106E116E31C512F532C513F533C533
:102FA00014F534C515F505ECBCF037500E24316E20
:102FB000000E0F20326E000E1020336E000E112016
:102FC000346E2450315C25503258265033582750E7
:102FD0003458D8A0EEEF97F0F0EF97F007EF98F0A5
:102FE0002050D8B4F6EF97F0F8EF97F014EF98F080
:102FF00031502C5C32502D5833502E5834502F58AD
:10300000D8B005EF98F007EF98F014EF98F02CC5C2
:1030100031F52DC532F52EC533F52FC534F5070131
:10302000556B220E546F3082354A362A35C5D9F495
:1030300036C5DAF4DF50376E308466EF97F03050E3
:10304000030BE806D8A427EF98F029EF98F031EFAA
:1030500098F0341E331E321E316C000E32223322A1
:1030600034221C501D10D8B438EF98F03AEF98F085
:103070004DEF98F030B43FEF98F041EF98F045EF06
:1030800098F01AC535F51BC536F51CC5D9F41DC514
:10309000DAF435C5DEF436C5DDF431C51AF532C5CE
:1030A0001BF533C51CF534C51DF512000850800B07
:1030B000116E08500824176E07AE61EF98F063EFA9
:1030C00098F064EF98F017801750D8B46AEF98F032
:1030D0006CEF98F07FEF98F01728D8A472EF98F073
:1030E00074EF98F07CEF98F0000E056E000E066EFF
:1030F000000E076E000E086E078E87EF98F0000E28
:10310000056E000E066E000E076E000E086E0C5067
:10311000800B111A0C500C24126E0BAE92EF98F02B
:1031200094EF98F095EF98F012801250D8B49BEF7E
:1031300098F09DEF98F0B0EF98F01228D8A4A3EF84
:1031400098F0A5EF98F0ADEF98F0000E096E000E24
:103150000A6E000E0B6E000E0C6E0B8EB8EF98F020
:10316000000E096E000E0A6E000E0B6E000E0C6E45
:103170001250D8B4BEEF98F0C0EF98F0C8EF98F0B6
:103180001750D8A4C6EF98F0C8EF98F0D2EF98F097
:10319000000E056E000E066E000E076E000E086E25
:1031A00068EF9AF00B500502F3C41CF5F4C41DF54A
:1031B0001C50136E146A156A166A1D50186E196A2F
:1031C0001A6A1B6A0A500602F3C41CF5F4C41DF502
:1031D0001C501326000E1422152216221D501826EC
:1031E000000E19221A221B2209500702F3C41CF5F3
:1031F000F4C41DF51C501326000E142215221622AD
:103200001D501826000E19221A221B2215C516F56C
:1032100014C515F513C514F5136A09500602F3C455
:103220001CF5F4C41DF51C5013261D501422000E6D
:103230001522000E16220A500502F3C41CF5F4C430
:103240001DF51C5013261D501422000E1522000ED1
:10325000162215C516F514C515F513C514F5136A10
:1032600009500502F3C41CF5F4C41DF51C501326C7
:103270001D501422000E1522000E16220B500602BD
:10328000F3C41CF5F4C41DF51C5018261D5019225A
:10329000000E1A22000E1B220A500702F3C41CF56E
:1032A000F4C41DF51C5018261D501922000E1A22B8
:1032B000000E1B220B500702F3C41CF5F4C41DF5CD
:1032C0001C500D6E1D500E6E0F6A106A0FC510F562
:1032D0000EC50FF50DC50EF50D6A0D5018260E50D2
:1032E00019220F501A2210501B2213C50DF514C5B8
:1032F0000EF515C50FF516C510F5190E85EF99F0E9
:10330000D89010320F320E320D32E82E80EF99F045
:103310000D5018260E5019220F501A2210501B2241
:1033200015C516F514C515F513C514F5136A125015
:1033300017C50DF50E6A0D26000E0E22820E0D2405
:103340001C6EFF0E0E201D6EBBEF99F0D890183644
:1033500019361A361B3616AEB0EF99F0B2EF99F067
:10336000B3EF99F01880D890133614361536163608
:103370001C06D8A01D061AAEC0EF99F0C2EF99F056
:10338000A6EF99F0126A16AEC8EF99F0CAEF99F05D
:10339000EEEF99F0FF0E13140D6EFF0E14140E6E67
:1033A000FF0E15140F6E7F0E1614106E0D500E10BA
:1033B0000F101010D8B4DFEF99F0E1EF99F0E5EFBE
:1033C00099F0010E126EEEEF99F018A0EAEF99F065
:1033D000ECEF99F0EEEF99F0E1EF99F01250D8B4DC
:1033E000F4EF99F0F6EF99F01AEF9AF0010E182623
:1033F000000E19221A221B221BA001EF9AF003EFE4
:103400009AF01AEF9AF018C50DF519C50EF51AC500
:103410000FF51BC510F5103410320F320E320D327D
:103420000DC518F50EC519F50FC51AF510C51BF514
:103430001C4A1D2A1DBE25EF9AF01D5008E11C28CC
:10344000D8A025EF9AF027EF9AF031EF9AF0000E0E
:10345000186E000E196E800E1A6E7F0E1B6E5EEFD8
:103460009AF01DBE3EEF9AF01D5006E11C04D8B044
:103470003CEF9AF03EEF9AF049EF9AF0000E186E8A
:10348000000E196E000E1A6E000E1B6E116A5EEFB2
:103490009AF01CC517F5FF0E1816FF0E19167F0EB1
:1034A0001A16000E1B1617A058EF9AF05AEF9AF052
:1034B0005BEF9AF01A8ED89017301B6E11501B12CA
:1034C00018C505F519C506F51AC507F51BC508F594
:1034D0001200C3ECBFF03DECC0F0A9ECBFF0F7EC7C
:1034E000BFF052ECC0F0D68E270E0501986FFB0E90
:1034F000996F7CECC0F0B4ECC0F08EECBFF005C569
:103500006CFE06C56DFE07C56EFE08C56FFE6C0E2F
:103510000501986FFA0E996F7CECC0F0460E0E6EA6
:10352000660E0F6E010E106E6EECBCF08C0E050177
:10353000986FFB0E996F7CECC0F08EECBFF005C568
:1035400070FE06C571FE07C572FE08C573FE8EECDF
:10355000BFF005C574FE06C575FE07C576FE08C535
:1035600077FEB7EF9AF00E018D51FDECB9F08D0E9C
:10357000056E0E0E066E38ECBFF00009D8A4C3EF3E
:103580009AF0C5EF9AF0B3EF9AF005ECC1F000099C
:10359000D8A4CDEF9AF0CFEF9AF0FFEF9AF08EEC2F
:1035A000BFF00E016C51055C0601356F0E016D51C7
:1035B00006580601366F0E016E5107580601376F27
:1035C0000E016F5108580601386F385137110BE161
:1035D000E80E355D030E3659D8A0F1EF9AF0F3EFFF
:1035E0009AF0FFEF9AF08EECBFF005C56CFE06C5B1
:1035F0006DFE07C56EFE08C56FFEB4ECC0F0FDECB5
:1036000090F08EECBFF00E017451055C0601356F31
:103610000E01755106580601366F0E017651075896
:103620000601376F0E01775108580601386F38517F
:1036300037110BE1880E355D130E3659D8A023EFF4
:103640009BF025EF9BF058EF9BF08EECBFF005C58B
:1036500074FE06C575FE07C576FE08C577FE850EA5
:10366000056E0E0E066E890E076E0E0E086E2CECA1
:10367000BDF0AF0E0501986FFA0E996F85CE9AF5E1
:1036800086CE9BF587CE9CF588CE9DF589CE9EF59E
:103690008ACE9FF58BCEA0F58CCEA1F505ECC1F0BE
:1036A0000601356F35510501A26FA36B7CECC0F0AC
:1036B0008EECBFF00E017051055C0601356F0E01F6
:1036C000715106580601366F0E01725107580601F6
:1036D000376F0E01735108580601386F3851371192
:1036E0000BE1E80E355D030E3659D8A07AEF9BF05A
:1036F0007CEF9BF0B7EF9AF08EECBFF005C570FE43
:1037000006C571FE07C572FE08C573FEFBECC0F06E
:1037100005C57AFE06C57BFE900E056E0E0E066E82
:1037200067ECC0F00E019051D8B499EF9BF09BEF7D
:103730009BF0B7EF9AF07ACED9F47BCEDAF4DF5073
:10374000D8B4A5EF9BF0A7EF9BF0B7EF9AF0E8ECA9
:10375000C0F023EE7CF2080EEBC4DBF4E806FCE2DA
:10376000500E0501A86F0E0EA96F91CEAAF592CE4C
:10377000ABF593CEACF594CEADF519ECB0F05E0E92
:103780000501A86F0E0EA96F95CEAAF596CEABF5E2
:1037900097CEACF598CEADF519ECB0F00E017C519A
:1037A000D8A4D5EF9BF0D7EF9BF0DCEF9BF0796BC3
:1037B000000E786FE0EF9BF07DCE78FE7ECE79FE36
:1037C000000E0501986F0E0E996F9B6B500E9A6F4D
:1037D000690E9C6FFD0E9D6F40C69EF541C69FF51C
:1037E0007ACEA0F57BCEA1F5500EA26F0E0EA36F80
:1037F0005E0EA46F0E0EA56F99CEA6F59ACEA7F514
:103800009BCEA8F59CCEA9F59DCEAAF59ECEABF594
:103810009FCEACF5A0CEADF578CEAEF579CEAFF5B6
:1038200092ECAFF098C58EFE99C58FFE0601404B15
:10383000412B0E018FBF25EF9CF08F5108E18E05C3
:10384000D8A025EF9CF027EF9CF0B7EF9AF08FBF40
:1038500035EF9CF08F5107E1500E8E5DD8B033EFFD
:103860009CF035EF9CF0B7EF9AF0000E106E0E0E44
:10387000116E8ECE12F58FCE13F5DAECBEF0B7EFE7
:103880009AF085EF00F00850800B156E0850082460
:103890001C6E07AE4EEF9CF050EF9CF051EF9CF089
:1038A0001C801C50D8B457EF9CF059EF9CF06DEF82
:1038B0009CF01C28D8A45FEF9CF061EF9CF069EFAE
:1038C0009CF0000E056E000E066E000E076E000ED8
:1038D000086E078E086A75EF9CF0000E056E000EEC
:1038E000066E000E076E000E086E0C50800B151A47
:1038F0000C500C241D6E0BAE80EF9CF082EF9CF000
:1039000083EF9CF01D801D50D8B489EF9CF08BEFA5
:103910009CF09FEF9CF01D28D8A491EF9CF093EFB2
:103920009CF09BEF9CF0000E096E000E0A6E000EDC
:103930000B6E000E0C6E0B8E0C6AA7EF9CF0000E47
:10394000096E000E0A6E000E0B6E000E0C6E095012
:103950000A100B100C10D8A4B0EF9CF0B2EF9CF042
:10396000CAEF9CF0000E056E000E066E000E076E8C
:10397000000E086E800E07127F0E081215500812F6
:1039800005C505F506C506F507C507F508C508F51B
:1039900009EF9EF01C50D8A4D0EF9CF0D2EF9CF021
:1039A000DCEF9CF0000E056E000E066E000E076E3A
:1039B000000E086E09EF9EF01D501CC50DF50E6A35
:1039C0000D5E000E0E5A7F0E0D24166E000E0E2098
:1039D000176E05C511F506C512F507C513F508C51F
:1039E00014F5000E056E000E066E000E076E000E3A
:1039F000086E000E186E000E196E000E1A6E000E84
:103A00001B6E1D6A3CEF9DF01D50D8B40AEF9DF06F
:103A10000CEF9DF023EF9DF0D8901136123613363F
:103A20001436D89005360636073608361BAE1BEF1F
:103A30009DF01DEF9DF01EEF9DF00580D89018368B
:103A400019361A361B360950115C0A5012580B50A1
:103A500013580C501458D8A030EF9DF032EF9DF061
:103A60003BEF9DF01B8C0950115E0A50125A0B500F
:103A7000135A0C50145A1D2A190E1D6442EF9DF062
:103A800044EF9DF004EF9DF011501210131014102C
:103A9000D8B44DEF9DF04FEF9DF067EF9DF018808B
:103AA00067EF9DF0D89005360636073608361BAE10
:103AB0005CEF9DF05EEF9DF05FEF9DF00580D8908C
:103AC000183619361A361B361606D8A0170607AE52
:103AD0006CEF9DF06EEF9DF052EF9DF01D6A1BAEF6
:103AE00074EF9DF076EF9DF09AEF9DF0FF0E1814A5
:103AF0000D6EFF0E19140E6EFF0E1A140F6E7F0E50
:103B00001B14106E0D500E100F101010D8B48BEF48
:103B10009DF08DEF9DF091EF9DF0010E1D6E9AEFDF
:103B20009DF005A096EF9DF098EF9DF09AEF9DF027
:103B30008DEF9DF01D50D8B4A0EF9DF0A2EF9DF049
:103B4000C6EF9DF0010E0526000E06220722082270
:103B500008A0ADEF9DF0AFEF9DF0C6EF9DF005C55D
:103B60000DF506C50EF507C50FF508C510F510349F
:103B700010320F320E320D320DC505F50EC506F5A9
:103B80000FC507F510C508F5164A172A17BED1EF5D
:103B90009DF0175008E11628D8A0D1EF9DF0D3EF83
:103BA0009DF0DEEF9DF0000E176E1668000E056E9C
:103BB000000E066E000E076E000E086E17BEEBEFCD
:103BC0009DF0175006E11604D8B0E9EF9DF0EBEF39
:103BD0009DF0F7EF9DF0176A000E166E000E056E51
:103BE000000E066E000E076E000E086E156A16C5F2
:103BF0001CF51CA0FEEF9DF000EF9EF003EF9EF081
:103C0000078E04EF9EF0079ED8901C30086EBEEF22
:103C10009CF012000A0E0501C26111EF9EF013EF35
:103C20009EF015EF9EF0C6EF9FF080ECB6F0050118
:103C300020EE02F0C051D926C151DA22DEC4F7F5D8
:103C4000DDC4F8F520EE04F0C051D926C151DA22C6
:103C5000DEC4F9F5DDC4FAF520EE06F0C051D92630
:103C6000C151DA22DEC4DFF5DDC4E0F520EE08F054
:103C7000C051D926C151DA22DEC4E1F5DDC4E2F536
:103C800020EE0AF0C051D926C151DA22DEC4E3F594
:103C9000DDC4E4F520EE0CF0C051D926C151DA2282
:103CA000DEC4E5F5DDC4E6F520EE0EF0C051D92600
:103CB000C151DA22DEC4E7F5DDC4E8F520EE10F0EC
:103CC000C051D926C151DA22DEC4F5F5DDC4F6F5BE
:103CD00020EE12F0C051D926C151DA22DEC4E9F536
:103CE000DDC4EAF5F9C5D9F4FAC5DAF4410EDE18F7
:103CF000D8B47DEF9EF07FEF9EF0BEEF9EF0B30E46
:103D00000E6E070E0F6E0DECB4F00009D8B48BEFF9
:103D10009EF08DEF9EF0C6EF9FF0F9C5D9F4FAC57D
:103D2000DAF4DF50D8A497EF9EF099EF9EF0A0EF61
:103D30009EF0590E0501EB6FFF0EEC6FA4EF9EF0A5
:103D4000F9C5EBF5FAC5ECF50C0E0501986FFC0E04
:103D5000996FEBC59AF5ECC59BF57CECC0F0F7C507
:103D6000A6F5F8C5A7F546ECB7F0ED0E0501986F7E
:103D7000FF0E996F7CECC0F0C6EF9FF0F7C5A8F579
:103D8000F8C5A9F50AECB8F0E7C52AF5E8C52BF5A2
:103D9000000E2C6E000E2D6E00EC80F02AC5EDF5A5
:103DA0002BC5EEF52CC5EFF52DC5F0F5EDC505F5E8
:103DB000EEC506F5EFC507F5F0C508F5C20E096EAC
:103DC0004C0E0A6E930E0B6E3F0E0C6E56EC98F076
:103DD00005C5F1F506C5F2F507C5F3F508C5F4F517
:103DE000DFC527F5E0C528F5E1C529F5E2C52AF5C7
:103DF000C7EC9FF027C501F728C502F729C503F7CF
:103E00002AC504F7E3C527F5E4C528F5E5C529F576
:103E1000E6C52AF5C7EC9FF027C505F728C506F7C4
:103E200029C507F72AC508F7F1C509F7F2C50AF74A
:103E3000F3C50BF7F4C50CF7F5C52AF5F6C52BF558
:103E4000000E2C6E000E2D6E00EC80F02AC50DF7D2
:103E50002BC50EF72CC50FF72DC510F7010E070166
:103E6000006FB30E0E6E070E0F6E0DECB4F000096E
:103E7000D8A43DEF9FF03FEF9FF041EF9FF0C6EFDA
:103E80009FF0C30E0501A86F050EA96F01C7AAF523
:103E900002C7ABF503C7ACF504C7ADF519ECB0F03C
:103EA000D10E0501A86F050EA96F05C7AAF506C7B3
:103EB000ABF507C7ACF508C7ADF519ECB0F09B0E34
:103EC0000501986FFF0E996F7CECC0F0C40E0501E0
:103ED000986FFF0E996F7CECC0F0F7C5A6F5F8C59A
:103EE000A7F546ECB7F0A20E0501986FFF0E996F8B
:103EF0007CECC0F0E9C5A6F5EAC5A7F5E4ECB6F0A0
:103F0000320E0501986FFE0E996FC30E9A6F050E63
:103F10009B6FD10E9C6F050E9D6F7CECC0F0350E33
:103F20000501986FFD0E996FEDC59AF5EEC59BF5ED
:103F3000EFC59CF5F0C59DF5F1C59EF5F2C59FF561
:103F4000F3C5A0F5F4C5A1F57CECC0F0010E0501A8
:103F5000986FFE0E996FF5C52AF5F6C52BF5000E84
:103F60002C6E000E2D6E00EC80F02AC59AF52BC544
:103F70009BF52CC59CF52DC59DF57CECC0F0ED0E98
:103F80000501986FFF0E996F7CECC0F01200000ED7
:103F90003C6E000E3D6E000E3E6E000E3F6E446A9B
:103FA000FFEF9FF044502724D96E000E2820DA6ED0
:103FB000DF502B6ED00E2B242C6E2D6AFF0E2D227F
:103FC0003CC50EF53DC50FF53EC510F53FC511F5D5
:103FD0000A0E126E000E136E000E146E000E156E99
:103FE00005ECBCF02C500E243C6E2D500F203D6E85
:103FF000000E10203E6E000E11203F6E442A4450E9
:104000002724D96E000E2820DA6E2F0EDF640BEF06
:10401000A0F00DEFA0F01BEFA0F044502724D96EC4
:10402000000E2820DA6E390EDF6419EFA0F01BEFC6
:10403000A0F0D2EF9FF0030E446021EFA0F023EF39
:10404000A0F02DEFA0F0000E276E000E286E000EDF
:10405000296E000E2A6E7DEFA1F0000E406E000E5C
:10406000416E000E426E000E436E3B6A44502724A0
:10407000D96E000E2820DA6E2E0EDE18D8A443EF7B
:10408000A0F045EFA0F0B7EFA0F0442A76EFA0F043
:1040900044502724D96E000E2820DA6EDF502B6E94
:1040A000D00E2B242C6E2D6AFF0E2D2240C50EF54E
:1040B00041C50FF542C510F543C511F50A0E126E44
:1040C000000E136E000E146E000E156E05ECBCF0A3
:1040D0002C500E24406E2D500F20416E000E1020EB
:1040E000426E000E1120436E442A3B2A050E3B60AF
:1040F0007CEFA0F07EEFA0F0B7EFA0F044502724B3
:10410000D96E000E2820DA6E2F0EDF648AEFA0F041
:104110008CEFA0F0B7EFA0F044502724D96E000E2A
:104120002820DA6E390EDF6498EFA0F09AEFA0F045
:1041300048EFA0F0B7EFA0F040C50EF541C50FF570
:1041400042C510F543C511F50A0E126E000E136E2E
:10415000000E146E000E156E05ECBCF00EC540F599
:104160000FC541F510C542F511C543F53B2A040EB4
:104170003B64BDEFA0F0BFEFA0F09CEFA0F03CC50A
:104180001AF53DC51BF53EC51CF53FC51DF5640E72
:104190001E6E000E1F6E000E206E000E216E16ECBD
:1041A000B9F01AC52FF51BC530F51CC531F51DC575
:1041B00032F5640E096E000E0A6E000E0B6E000ED4
:1041C0000C6E3CC505F53DC506F53EC507F53FC57A
:1041D00008F5CEECBAF005C50EF506C50FF507C516
:1041E00010F508C511F5A00E126E860E136E010EA5
:1041F000146E000E156E05ECBCF040500E24336EAC
:1042000041500F20346E42501020356E4350112023
:10421000366E2FC50EF530C50FF531C510F532C518
:1042200011F5800E126E960E136E980E146E000E1F
:10423000156E05ECBCF00EC52BF50FC52CF510C5A1
:104240002DF511C52EF533C50EF534C50FF535C561
:1042500010F536C511F5050E126E000E136E000E28
:10426000146E000E156E05ECBCF00EC51AF50FC5E8
:104270001BF510C51CF511C51DF5030E1E6E000EB5
:104280001F6E000E206E000E216E16ECB9F01A5053
:104290002B24376E1B502C20386E1C502D20396E6D
:1042A0001D502E203A6E29C5D9F42AC5DAF4530ED2
:1042B000DE18D8B45EEFA1F060EFA1F06DEFA1F0D1
:1042C00029C5D9F42AC5DAF4570EDE18D8A46BEF45
:1042D000A1F06DEFA1F075EFA1F03A1E391E381E66
:1042E000376C000E382239223A2237C527F538C5F7
:1042F00028F539C529F53AC52AF512000A0E050137
:10430000C26185EFA1F087EFA1F089EFA1F0C5EFC1
:10431000A2F020EE02F0C051D926C151DA22DEC44B
:10432000EDF5DDC4EEF520EE04F0C051D926C15103
:10433000DA22DEC4DFF5DDC4E0F520EE06F0C05180
:10434000D926C151DA22DEC4E1F5DDC4E2F520EE62
:1043500008F0C051D926C151DA22DEC4E3F5DDC42C
:10436000E4F520EE0AF0C051D926C151DA22DEC4AC
:10437000E5F5DDC4E6F520EE0CF0C051D926C151BB
:10438000DA22DEC4F1F5DDC4F2F520EE0EF0C05104
:10439000D926C151DA22DEC4EFF5DDC4F0F520EEF6
:1043A00010F0C051D926C151DA22DEC4E7F5DDC4D0
:1043B000E8F520EE12F0C051D926C151DA22DEC450
:1043C000E9F5DDC4EAF5F1C5D9F4F2C5DAF4300E49
:1043D000DE18D8B4EEEFA1F0F0EFA1F002EFA2F0FA
:1043E000F1C5D9F4F2C5DAF4DF50D8B4FAEFA1F090
:1043F000FCEFA1F002EFA2F0EDC5A8F5EEC5A9F51E
:104400000AECB8F0AF0E0E6E070E0F6E0DECB4F0A6
:104410000009D8A40EEFA2F010EFA2F012EFA2F064
:10442000C5EFA2F0C30E0501A86F050EA96FDFC589
:1044300027F5E0C528F5E1C529F5E2C52AF5C7EC61
:104440009FF027C5AAF528C5ABF529C5ACF52AC547
:10445000ADF519ECB0F0D10E0501A86F050EA96FEE
:10446000E3C527F5E4C528F5E5C529F5E6C52AF530
:10447000C7EC9FF027C5AAF528C5ABF529C5ACF553
:104480002AC5ADF519ECB0F0940E0501986FFF0E3A
:10449000996F7CECC0F0C40E0501986FFF0E996F08
:1044A0007CECC0F0EDC5A6F5EEC5A7F546ECB7F07F
:1044B000EFC5D9F4F0C5DAF4DF50D8A462EFA2F06A
:1044C00064EFA2F06BEFA2F0870E0501EB6FFE0E1A
:1044D000EC6F6FEFA2F0EFC5EBF5F0C5ECF54F0E0A
:1044E0000501986FFD0E996FF1C505F5F2C506F54A
:1044F00012ECBBF005C59AF506C59BF5EBC59CF51E
:10450000ECC59DF5E7C52AF5E8C52BF5000E2C6E28
:10451000000E2D6E00EC80F02AC59EF52BC59FF590
:104520002CC5A0F52DC5A1F57CECC0F0320E05011F
:10453000986FFE0E996FC30E9A6F050E9B6FD10E8A
:104540009C6F050E9D6F7CECC0F0960E0501986F78
:10455000FE0E996FE9C52AF5EAC52BF5000E2C6E03
:10456000000E2D6E00EC80F02AC59AF52BC59BF548
:104570002CC59CF52DC59DF57CECC0F0ED0E05011C
:10458000986FFF0E996F7CECC0F0120006015E057B
:10459000D8A4CDEFA2F0CFEFA2F0DEEFA2F05E6BD9
:1045A0005A6B596B560E0501986FFC0E996F7CEC97
:1045B000C0F00F0E4AECBEF0F1EFA3F0020E5E1950
:1045C000D8A4E5EFA2F0E7EFA2F0D0EFA3F05E6B86
:1045D0005A6B596BBC0E0501986FFB0E996F7CEC02
:1045E000C0F00D0E4AECBEF0F1EFA3F032ECABF0F0
:1045F000F1EFA3F00501B66B09EFA3F0010EB625AC
:10460000D96EDA6A090EDA22DF50D0ECC0F005016B
:10461000B62B090100510501B65DD8A012EFA3F039
:1046200014EFA3F0FEEFA2F0750E0E6EFF0E0F6EEC
:10463000CA0E106EFF0E116E100E126E270E136E44
:10464000000E146E000E156E3AECBCF0020E060160
:104650005A6FF1EFA3F006015A6B0F0E4AECBEF051
:10466000F1EFA3F043ECBAF0566E576A5750000AC8
:10467000D8B43DEFA3F0F1EFA3F05650010AD8B43F
:10468000FAEFA2F0030AD8B42BEFA3F0010AD8B4D2
:104690002BEFA3F0F1EFA3F0010E0601576553EFE6
:1046A000A3F055EFA3F05AEFA3F05707ACECBDF021
:1046B000F1EFA3F006015A6BF1EFA3F006015A6B7C
:1046C0000F0E4AECBEF0F1EFA3F043ECBAF0566ED9
:1046D000576A5750000AD8B470EFA3F0F1EFA3F077
:1046E0005650010AD8B44CEFA3F0030AD8B45EEFD9
:1046F000A3F0010AD8B45EEFA3F0F1EFA3F0000E2F
:104700000501AA6F0B0EAB6F4DECADF00009D8B4EC
:104710008CEFA3F08EEFA3F05AEFA3F0010E060189
:104720005F6F5AEFA3F043ECBAF0566E576A5750DA
:10473000000AD8B49EEFA3F0F1EFA3F05650010A9F
:10474000D8B47FEFA3F0030AD8B45AEFA3F0010A5C
:10475000D8B45AEFA3F0F1EFA3F0000E0501A66F55
:104760000B0EA76F05ECA6F05AEFA3F043ECBAF0DE
:10477000566E576A5750000AD8B4C1EFA3F0F1EF54
:10478000A3F05650010AD8B4ADEFA3F0030AD8B491
:104790005AEFA3F0010AD8B45AEFA3F0F1EFA3F057
:1047A0005A51566E576A5750000AD8B4DAEFA3F040
:1047B000F1EFA3F05650000AD8B4F6EFA2F0010AC8
:1047C000D8B432EFA3F0030AD8B465EFA3F0010A1E
:1047D000D8B493EFA3F0070AD8B4B6EFA3F0F1EF83
:1047E000A3F01200536ED3EFA4F0B50E5318D8A463
:1047F000FCEFA3F0FEEFA3F0FBEFA4F0010E526F6D
:10480000FBEFA4F0620E5318D8B409EFA4F00BEF3D
:10481000A4F010EFA4F04E6A000E4D6E13EFA4F05A
:104820004E6A020E4D6E4DC552F6FBEFA4F053C515
:1048300051F653C55BF553C54FF6030E526FFBEFB0
:10484000A4F053C550F65B5053245B6E4F515B246C
:104850004F6F040E526FFBEFA4F053C544F6456B47
:104860005B5053245B6E4F515B244F6F050E526FAC
:10487000FBEFA4F053504C6E4B6A4B5044134C501A
:1048800045135B5053245B6E4F515B244F6F436B5A
:10489000000E426F44514511D8B451EFA4F053EFCC
:1048A000A4F058EFA4F0506A070E4F6E5BEFA4F02F
:1048B000506A060E4F6E4FC552F6FBEFA4F05B50E8
:1048C00053245B6E4F515B244F6F424B432B44513B
:1048D000425D45514359D8A070EFA4F072EFA4F0A7
:1048E000FBEFA4F0060E526FFBEFA4F05B505318E1
:1048F000D8B47DEFA4F07FEFA4F084EFA4F0526A67
:10490000000E516E87EFA4F0526A080E516E51C529
:1049100052F6FBEFA4F04F515318D8A492EFA4F035
:1049200094EFA4F0CFEFA4F0050E5119D8A49BEF9B
:10493000A4F09DEFA4F0CFEFA4F05005D8A4A3EF0E
:10494000A4F0A5EFA4F0B8EFA4F05351D8B4ABEFA6
:10495000A4F0ADEFA4F0CFEFA4F0010E546F9D0EC4
:104960000501986FFC0E996F7CECC0F0CFEFA4F0BE
:104970005051D8A4BEEFA4F0C0EFA4F0CFEFA4F044
:104980005351D8B4C6EFA4F0C8EFA4F0CFEFA4F011
:104990007A0E0501986FFC0E996F7CECC0F0060151
:1049A000526BFBEFA4F006015251000AD8B4F5EFA8
:1049B000A3F0010AD8B402EFA4F0030AD8B417EFA9
:1049C000A4F0010AD8B421EFA4F0070AD8B42DEF5F
:1049D000A4F0010AD8B43AEFA4F0030AD8B476EFF1
:1049E000A4F0010AD8B45FEFA4F00F0AD8B48BEF9B
:1049F000A4F0FBEFA4F0120020C72EF521C72FF57D
:104A000022C730F523C731F51EC52EF51FC52FF57A
:104A100020C530F521C531F5810E226EFF0E236EC3
:104A20002EC524F52FC525F530C526F531C527F54A
:104A3000180E20EFA5F0D8902732263225322432E6
:104A4000E82E1BEFA5F0245022242C6E000E23200C
:104A50002D6E2DBE35EFA5F02D5009E1170E2C5C03
:104A6000D8A035EFA5F037EFA5F041EFA5F01EC5B2
:104A70001EF51FC51FF520C520F521C521F504EF42
:104A8000A6F02DBE46EFA5F048EFA5F0B8EFA5F0D3
:104A90002CC522F5FF0E236EFF0E246E7F0E256EB1
:104AA000000E266E226657EFA5F05FEFA5F02634C4
:104AB0002632253224322332222E52EFA5F023C58E
:104AC00028F524C529F525C52AF526C52BF5285036
:104AD0002E14226E29502F14236E2A503014246E67
:104AE0002B503114256E2250231024102510D8A4E9
:104AF0007CEFA5F07EEFA5F080EFA5F037EFA5F0F5
:104B00002EC522F52FC523F530C524F531C525F571
:104B1000200E90EFA5F0D890253224322332223295
:104B2000E82E8BEFA5F02250231024102510D8B4C6
:104B30009CEFA5F09EEFA5F0A6EFA5F028502E263D
:104B400029502F222A5030222B503122281C226E2D
:104B5000291C236E2A1C246E2B1C256E22502E1617
:104B600023502F162450301625503116FCEFA5F097
:104B70002EC522F52FC523F530C524F531C525F501
:104B8000200EC8EFA5F0D8902532243223322232ED
:104B9000E82EC3EFA5F02250231024102510D8A42E
:104BA000D4EFA5F0D6EFA5F0E0EFA5F0000E2E6E45
:104BB000000E2F6E000E306E000E316EFCEFA5F071
:104BC000D8902E34226E2F34236E3034246E31343C
:104BD000256E2250231024102510D8B4F2EFA5F032
:104BE000F4EFA5F0FCEFA5F0000E2E6E000E2F6E78
:104BF000800E306EBF0E316E2EC51EF52FC51FF50F
:104C000030C520F531C521F51200A6C50CF5A7C5A4
:104C10000DF5B70E0E6EFF0E0F6EA8ECB7F00CC5BB
:104C2000B3F50DC5B4F50501B351B411D8A41BEF0C
:104C3000A6F01DEFA6F01FEFA6F005EFA7F0060EF9
:104C4000B327000EB423B26BCAEFA6F0B34BB42B5C
:104C5000B3C5D9F4B4C5DAF4DF50D8B432EFA6F056
:104C600034EFA6F073EFA6F0B3C5D9F4B4C5DAF407
:104C70002D0EDE18D8B43FEFA6F041EFA6F073EF8B
:104C8000A6F0B3C5D9F4B4C5DAF42F0EDF644BEF48
:104C9000A6F04DEFA6F059EFA6F0B3C5D9F4B4C510
:104CA000DAF4390EDF6457EFA6F059EFA6F073EF90
:104CB000A6F0B3C5D9F4B4C5DAF40D0EDE18D8B435
:104CC00064EFA6F066EFA6F073EFA6F0B3C5D9F4D3
:104CD000B4C5DAF40A0EDE18D8A471EFA6F073EFAB
:104CE000A6F026EFA6F0B3C5D9F4B4C5DAF4DF50C8
:104CF000D8B47DEFA6F07FEFA6F0D2EFA6F0B3C553
:104D0000D9F4B4C5DAF40D0EDE18D8B48AEFA6F0E3
:104D10008CEFA6F0D2EFA6F0B3C5D9F4B4C5DAF49F
:104D20000A0EDE18D8A497EFA6F099EFA6F09BEF35
:104D3000A6F0D2EFA6F0B3C51AF5B4C51BF5B00EB8
:104D40001C6E050E1D6E1F6A0A0E1E6E010E206E71
:104D50000DEC96F00501B251020DA80EF324D96EA8
:104D6000050EF420DA6E1AC5DEF41BC5DDF4B22B95
:104D7000B051B31907E1B151B419D8A4C2EFA6F0EC
:104D8000C4EFA6F0C6EFA6F0D2EFA6F0B0C5B3F51B
:104D9000B1C5B4F5030EB265D0EFA6F0D2EFA6F020
:104DA00028EFA6F0040EB219D8A4D9EFA6F0DBEFD5
:104DB000A6F005EFA7F0A8C512F7A9C513F7AAC575
:104DC00014F7ABC515F7ACC516F7ADC517F7AEC5EB
:104DD00018F7AFC519F7010E0701116FF10E0501A4
:104DE000986FFA0E996FA8C59AF5A9C59BF5AAC543
:104DF0009CF5ABC59DF5ACC59EF5ADC59FF5AEC5A3
:104E0000A0F5AFC5A1F57CECC0F0120025BE0BEFFC
:104E1000A7F00EEFA7F0010E0FEFA7F0000E2C6E1B
:104E20000501FCBF16EFA7F018EFA7F019EFA7F0E8
:104E30005892FCBF20EFA7F01EEFA7F025EFA7F0D8
:104E4000296A010E286E29EFA7F0FBC528F5FCC5DD
:104E500029F53EC62AF53FC62BF52C50D8B433EFC2
:104E6000A7F035EFA7F04AEFA7F02A06D8A02B0647
:104E70002C50D8A43EEFA7F040EFA7F045EFA7F0E5
:104E8000276A2B0E266E48EFA7F0276A2D0E266E96
:104E900026C52CF52E6A4F0E2D6E0701A56B95EFDA
:104EA000A7F02D06D8A02E06560E2D24D96E070E7B
:104EB0002E20DA6E22C505F523C506F524C507F5B3
:104EC00025C508F50A0E096E000E0A6E000E0B6E5F
:104ED000000E0C6E98ECB3F005C50FF506C510F585
:104EE000DDECBFF00F50300FDF6E2806D8A029068A
:104EF0002A06D8A02B0622C505F523C506F524C52C
:104F000007F525C508F50A0E096E000E0A6E000E9B
:104F10000B6E000E0C6EA0ECB0F005C522F506C5B8
:104F200023F507C524F508C525F52EBEA0EFA7F08B
:104F30002E5008E12D04D8A0A0EFA7F0A2EFA7F013
:104F4000CEEFA7F02250231024102510D8A4ABEFE9
:104F5000A7F0ADEFA7F051EFA7F029BEBAEFA7F089
:104F6000295006E12804D8B0B8EFA7F0BAEFA7F0AF
:104F700051EFA7F02BBEC5EFA7F02B5008E12A0494
:104F8000D8A0C5EFA7F0C7EFA7F0CEEFA7F058B2B3
:104F9000CCEFA7F0CEEFA7F051EFA7F02C50D8B48C
:104FA000D4EFA7F0D6EFA7F0E1EFA7F02D06D8A039
:104FB0002E06560E2D24D96E070E2E20DA6E2CC525
:104FC000DFF420C517F521C518F5560E2D24196EEE
:104FD000070E2E201A6E2AC51BF52BC51CF569EC91
:104FE000B8F017C520F518C521F512000D6E0D504B
:104FF000D8B4FDEFA7F0FFEFA7F021EFA8F008BEAF
:1050000006EFA8F004EFA8F021EFA8F005C509F518
:1050100006C50AF507C50BF508C50CF5091E0A1EDD
:105020000B1E0C1E092A000E0A220B220C2209C597
:105030000FF50AC510F50BC511F50CC512F529EFD2
:10504000A8F005C50FF506C510F507C511F508C58B
:1050500012F50550061007100810D8A432EFA8F07A
:1050600034EFA8F03EEFA8F0000E056E000E066EBD
:10507000000E076E000E086ECFEFA8F0960E0E6EB3
:1050800048EFA8F00E2AD8901232113210320F32A7
:10509000000E0F14096E000E10140A6E000E11148B
:1050A0000B6EFE0E12140C6E09500A100B100C1031
:1050B000D8A45DEFA8F05FEFA8F042EFA8F06DEF85
:1050C000A8F00E2A010E0F26000E10221122122225
:1050D000D8901232113210320F32000E0F14096EB6
:1050E000000E10140A6E000E11140B6EFF0E121437
:1050F0000C6E09500A100B100C10D8A482EFA8F007
:1051000084EFA8F061EFA8F08CEFA8F00E06D8901D
:105110000F3610361136123611BE91EFA8F093EF0C
:10512000A8F09BEFA8F0020E0E6099EFA8F09BEF9D
:10513000A8F086EFA8F00EB0A0EFA8F0A2EFA8F0BC
:10514000A3EFA8F0119ED8900E320EC509F50A6A99
:105150000B6A0C6A09C50CF50B6A0A6A096A0950E0
:105160000F120A5010120B5011120C5012120D5047
:10517000D8B4BDEFA8F0BFEFA8F0C7EFA8F008BE05
:10518000C6EFA8F0C4EFA8F0C7EFA8F0128E0FC5C5
:1051900005F510C506F511C507F512C508F512008D
:1051A00092EFA9F05050DCECC0F006016105D8A4E4
:1051B000DCEFA8F0DEEFA8F053EFA9F04D5109E1C4
:1051C000C70E4C5DD8A0E7EFA8F0E9EFA8F001EF1B
:1051D000A9F0000E056E0B0E066E640E076E0B0E28
:1051E000086E0A6A640E096E72ECAAF006014D6B35
:1051F000640E4C6F000E4C25D96E0B0E4D21DA6EED
:10520000DF6A000E4C25D96E0B0E4D21DA6E50C5AB
:10521000DFF44C4B4D2B000E4C25D96E0B0E4D215F
:10522000DA6EDF6A000E0C6E0B0E0D6E4AC60EF5BE
:105230004BC60FF5A8ECB7F00C500D10D8B423EF07
:10524000A9F025EFA9F02CEFA9F0010E0601606F7F
:10525000020E616F53EFA9F048C6F6F449C6F7F4A1
:10526000000EF86E0800F5500009D8B43AEFA9F026
:105270003CEFA9F053EFA9F0000E0C6E0B0E0D6E73
:1052800048C60EF549C60FF5A8ECB7F00C500D1046
:10529000D8B44DEFA9F04FEFA9F053EFA9F00601F4
:1052A000606B020E616F0A0E5018D8B45AEFA9F065
:1052B0005CEFA9F065EFA9F00D0E5018D8A463EFCC
:1052C000A9F065EFA9F080EFA9F006015D51D8B40F
:1052D0006CEFA9F06EEFA9F092EFA9F0000E5D253A
:1052E000D96EDA6A0A0EDA22DF6A000E0501A66FAD
:1052F0000A0EA76FE5ECADF006015D6B92EFA9F029
:105300005F0E06015D6187EFA9F089EFA9F07CEFE0
:10531000A9F0000E5D25D96EDA6A0A0EDA2250C5B0
:10532000DFF45D2B500E056E050E066E55ECBFF0DA
:105330000009D8A49EEFA9F0A0EFA9F0D2EFA8F041
:10534000120012C51AF513C51BF51A501B10D8A46C
:10535000ACEFA9F0AEEFA9F0B2EFA9F08D0E1A6E86
:10536000FF0E1B6E1D6A000E1C6EB9EFA9F01C4AE1
:105370001D2A1C501A24146E1D501B20156E14C5B6
:10538000F6F415C5F7F4000EF86E3F0EF76403D07F
:105390000800F55005D0F6C4E9F4F7C4EAF4EF507C
:1053A0000009D8A4D6EFA9F0D8EFA9F0B7EFA9F07B
:1053B0000501FCBFDEEFA9F0E0EFA9F0F3EFA9F0E3
:1053C0001C50FB5DFC51800A146E1D50800A14585D
:1053D000D8B0EDEFA9F0EFEFA9F0F3EFA9F0FBC51E
:1053E0001CF5FCC51DF51CC516F51DC517F53EC6FB
:1053F00018F53FC619F558B000EFAAF002EFAAF071
